{
  "contractName": "EscrowContainer",
  "abi": [
    {
      "inputs": [
        {
          "internalType": "address",
          "name": "",
          "type": "address"
        },
        {
          "internalType": "uint256",
          "name": "",
          "type": "uint256"
        }
      ],
      "name": "buyerList",
      "outputs": [
        {
          "internalType": "address",
          "name": "",
          "type": "address"
        }
      ],
      "stateMutability": "view",
      "type": "function",
      "constant": true
    },
    {
      "inputs": [
        {
          "internalType": "address",
          "name": "",
          "type": "address"
        }
      ],
      "name": "buyerListLength",
      "outputs": [
        {
          "internalType": "uint256",
          "name": "",
          "type": "uint256"
        }
      ],
      "stateMutability": "view",
      "type": "function",
      "constant": true
    },
    {
      "inputs": [
        {
          "internalType": "address",
          "name": "",
          "type": "address"
        },
        {
          "internalType": "uint256",
          "name": "",
          "type": "uint256"
        }
      ],
      "name": "sellerList",
      "outputs": [
        {
          "internalType": "address",
          "name": "",
          "type": "address"
        }
      ],
      "stateMutability": "view",
      "type": "function",
      "constant": true
    },
    {
      "inputs": [
        {
          "internalType": "address",
          "name": "",
          "type": "address"
        }
      ],
      "name": "sellerListLength",
      "outputs": [
        {
          "internalType": "uint256",
          "name": "",
          "type": "uint256"
        }
      ],
      "stateMutability": "view",
      "type": "function",
      "constant": true
    },
    {
      "inputs": [],
      "name": "ticker",
      "outputs": [
        {
          "internalType": "uint256",
          "name": "",
          "type": "uint256"
        }
      ],
      "stateMutability": "view",
      "type": "function",
      "constant": true
    },
    {
      "inputs": [
        {
          "internalType": "bool",
          "name": "fromBuyer",
          "type": "bool"
        },
        {
          "internalType": "address",
          "name": "user",
          "type": "address"
        }
      ],
      "name": "getEscrowListLength",
      "outputs": [
        {
          "internalType": "uint256",
          "name": "",
          "type": "uint256"
        }
      ],
      "stateMutability": "view",
      "type": "function",
      "constant": true
    },
    {
      "inputs": [
        {
          "internalType": "address",
          "name": "contractAddress",
          "type": "address"
        }
      ],
      "name": "contractAddressToStruct",
      "outputs": [
        {
          "components": [
            {
              "internalType": "address",
              "name": "EscrowContract",
              "type": "address"
            },
            {
              "internalType": "address",
              "name": "seller",
              "type": "address"
            },
            {
              "internalType": "address",
              "name": "buyer",
              "type": "address"
            },
            {
              "internalType": "uint256",
              "name": "price",
              "type": "uint256"
            },
            {
              "internalType": "string",
              "name": "state",
              "type": "string"
            },
            {
              "internalType": "string",
              "name": "description",
              "type": "string"
            }
          ],
          "internalType": "struct EscrowTypes.EscrowValues",
          "name": "",
          "type": "tuple"
        }
      ],
      "stateMutability": "view",
      "type": "function",
      "constant": true
    },
    {
      "inputs": [
        {
          "internalType": "address",
          "name": "user",
          "type": "address"
        },
        {
          "internalType": "uint256",
          "name": "item",
          "type": "uint256"
        }
      ],
      "name": "getBuyerEscrowStruct",
      "outputs": [
        {
          "components": [
            {
              "internalType": "address",
              "name": "EscrowContract",
              "type": "address"
            },
            {
              "internalType": "address",
              "name": "seller",
              "type": "address"
            },
            {
              "internalType": "address",
              "name": "buyer",
              "type": "address"
            },
            {
              "internalType": "uint256",
              "name": "price",
              "type": "uint256"
            },
            {
              "internalType": "string",
              "name": "state",
              "type": "string"
            },
            {
              "internalType": "string",
              "name": "description",
              "type": "string"
            }
          ],
          "internalType": "struct EscrowTypes.EscrowValues",
          "name": "",
          "type": "tuple"
        }
      ],
      "stateMutability": "view",
      "type": "function",
      "constant": true
    },
    {
      "inputs": [
        {
          "internalType": "address",
          "name": "user",
          "type": "address"
        },
        {
          "internalType": "uint256",
          "name": "item",
          "type": "uint256"
        }
      ],
      "name": "getSellerEscrowStruct",
      "outputs": [
        {
          "components": [
            {
              "internalType": "address",
              "name": "EscrowContract",
              "type": "address"
            },
            {
              "internalType": "address",
              "name": "seller",
              "type": "address"
            },
            {
              "internalType": "address",
              "name": "buyer",
              "type": "address"
            },
            {
              "internalType": "uint256",
              "name": "price",
              "type": "uint256"
            },
            {
              "internalType": "string",
              "name": "state",
              "type": "string"
            },
            {
              "internalType": "string",
              "name": "description",
              "type": "string"
            }
          ],
          "internalType": "struct EscrowTypes.EscrowValues",
          "name": "",
          "type": "tuple"
        }
      ],
      "stateMutability": "view",
      "type": "function",
      "constant": true
    },
    {
      "inputs": [
        {
          "internalType": "bool",
          "name": "isBuyer",
          "type": "bool"
        },
        {
          "internalType": "string",
          "name": "description",
          "type": "string"
        }
      ],
      "name": "createEscrow",
      "outputs": [],
      "stateMutability": "payable",
      "type": "function",
      "payable": true
    },
    {
      "inputs": [
        {
          "internalType": "address",
          "name": "contractAddress",
          "type": "address"
        }
      ],
      "name": "setBuyer",
      "outputs": [],
      "stateMutability": "payable",
      "type": "function",
      "payable": true
    },
    {
      "inputs": [
        {
          "internalType": "address",
          "name": "contractAddress",
          "type": "address"
        }
      ],
      "name": "setSeller",
      "outputs": [],
      "stateMutability": "payable",
      "type": "function",
      "payable": true
    },
    {
      "inputs": [
        {
          "internalType": "address",
          "name": "contractAddress",
          "type": "address"
        }
      ],
      "name": "buyerRecieveItem",
      "outputs": [],
      "stateMutability": "nonpayable",
      "type": "function"
    },
    {
      "inputs": [
        {
          "internalType": "address",
          "name": "contractAddress",
          "type": "address"
        }
      ],
      "name": "contractExpired",
      "outputs": [],
      "stateMutability": "nonpayable",
      "type": "function"
    },
    {
      "inputs": [
        {
          "internalType": "address",
          "name": "contractAddress",
          "type": "address"
        }
      ],
      "name": "cleanUpLists",
      "outputs": [],
      "stateMutability": "nonpayable",
      "type": "function"
    }
  ],
  "bytecode": "0x608060405234801561001057600080fd5b50615e2e806100206000396000f3fe608060405260043610620000fe5760003560e01c80637f11c6b21162000097578063bbe333281162000061578063bbe333281462000375578063e99d28661462000395578063fce5e82a14620003b5578063ffe4fd6e14620003f957620000fe565b80637f11c6b214620002b35780638ba47bdd14620002f7578063a3f09ad61462000327578063b5bc8c08146200034757620000fe565b80634f2da2da11620000d95780634f2da2da14620001b9578063548eb43b14620001fd5780635fac50fa146200022b5780636e881c9a146200026f57620000fe565b806311202c5a14620001035780632d80f88c14620001315780633280c5fb1462000175575b600080fd5b3480156200011057600080fd5b506200012f600480360381019062000129919062002894565b6200043d565b005b3480156200013e57600080fd5b506200015d6004803603810190620001579190620028f8565b62000bde565b6040516200016c919062002cf7565b60405180910390f35b3480156200018257600080fd5b50620001a160048036038101906200019b9190620028f8565b6200105d565b604051620001b0919062002cf7565b60405180910390f35b348015620001c657600080fd5b50620001e56004803603810190620001df91906200293f565b620014dc565b604051620001f4919062002d1b565b60405180910390f35b3480156200020a57600080fd5b5062000229600480360381019062000223919062002894565b62001576565b005b3480156200023857600080fd5b5062000257600480360381019062000251919062002894565b620015fa565b60405162000266919062002d1b565b60405180910390f35b3480156200027c57600080fd5b506200029b6004803603810190620002959190620028f8565b62001612565b604051620002aa919062002c62565b60405180910390f35b348015620002c057600080fd5b50620002df6004803603810190620002d99190620028f8565b62001661565b604051620002ee919062002c62565b60405180910390f35b3480156200030457600080fd5b506200030f620016b0565b6040516200031e919062002d1b565b60405180910390f35b6200034560048036038101906200033f919062002894565b620016b6565b005b3480156200035457600080fd5b506200037360048036038101906200036d919062002894565b62001832565b005b6200039360048036038101906200038d919062002986565b6200189d565b005b620003b36004803603810190620003ad919062002894565b62001aec565b005b348015620003c257600080fd5b50620003e16004803603810190620003db919062002894565b62001c68565b604051620003f0919062002d1b565b60405180910390f35b3480156200040657600080fd5b506200042560048036038101906200041f919062002894565b62001c80565b60405162000434919062002cf7565b60405180910390f35b600080815480929190620004519062002f64565b919050555060008190506004600681111562000472576200047162002fe1565b5b8173ffffffffffffffffffffffffffffffffffffffff1663378aa7016040518163ffffffff1660e01b815260040160206040518083038186803b158015620004b957600080fd5b505afa158015620004ce573d6000803e3d6000fd5b505050506040513d601f19601f82011682018060405250810190620004f49190620029ec565b600681111562000509576200050862002fe1565b5b146200054c576040517f08c379a0000000000000000000000000000000000000000000000000000000008152600401620005439062002cb3565b60405180910390fd5b620005578162001ff6565b156200089357600260008273ffffffffffffffffffffffffffffffffffffffff16634355f1ec6040518163ffffffff1660e01b815260040160206040518083038186803b158015620005a857600080fd5b505afa158015620005bd573d6000803e3d6000fd5b505050506040513d601f19601f82011682018060405250810190620005e39190620028c6565b73ffffffffffffffffffffffffffffffffffffffff1673ffffffffffffffffffffffffffffffffffffffff1681526020019081526020016000206000815480929190620006309062002eff565b91905055506000600260008373ffffffffffffffffffffffffffffffffffffffff16634355f1ec6040518163ffffffff1660e01b815260040160206040518083038186803b1580156200068257600080fd5b505afa15801562000697573d6000803e3d6000fd5b505050506040513d601f19601f82011682018060405250810190620006bd9190620028c6565b73ffffffffffffffffffffffffffffffffffffffff1673ffffffffffffffffffffffffffffffffffffffff1681526020019081526020016000205414156200089257600260008273ffffffffffffffffffffffffffffffffffffffff16634355f1ec6040518163ffffffff1660e01b815260040160206040518083038186803b1580156200074a57600080fd5b505afa1580156200075f573d6000803e3d6000fd5b505050506040513d601f19601f82011682018060405250810190620007859190620028c6565b73ffffffffffffffffffffffffffffffffffffffff1673ffffffffffffffffffffffffffffffffffffffff16815260200190815260200160002060009055600160008273ffffffffffffffffffffffffffffffffffffffff16634355f1ec6040518163ffffffff1660e01b815260040160206040518083038186803b1580156200080e57600080fd5b505afa15801562000823573d6000803e3d6000fd5b505050506040513d601f19601f82011682018060405250810190620008499190620028c6565b73ffffffffffffffffffffffffffffffffffffffff1673ffffffffffffffffffffffffffffffffffffffff168152602001908152602001600020600062000891919062002646565b5b5b6200089e8162002121565b1562000bda57600460008273ffffffffffffffffffffffffffffffffffffffff16632a7ce0266040518163ffffffff1660e01b815260040160206040518083038186803b158015620008ef57600080fd5b505afa15801562000904573d6000803e3d6000fd5b505050506040513d601f19601f820116820180604052508101906200092a9190620028c6565b73ffffffffffffffffffffffffffffffffffffffff1673ffffffffffffffffffffffffffffffffffffffff1681526020019081526020016000206000815480929190620009779062002eff565b91905055506000600460008373ffffffffffffffffffffffffffffffffffffffff16632a7ce0266040518163ffffffff1660e01b815260040160206040518083038186803b158015620009c957600080fd5b505afa158015620009de573d6000803e3d6000fd5b505050506040513d601f19601f8201168201806040525081019062000a049190620028c6565b73ffffffffffffffffffffffffffffffffffffffff1673ffffffffffffffffffffffffffffffffffffffff16815260200190815260200160002054141562000bd957600460008273ffffffffffffffffffffffffffffffffffffffff16632a7ce0266040518163ffffffff1660e01b815260040160206040518083038186803b15801562000a9157600080fd5b505afa15801562000aa6573d6000803e3d6000fd5b505050506040513d601f19601f8201168201806040525081019062000acc9190620028c6565b73ffffffffffffffffffffffffffffffffffffffff1673ffffffffffffffffffffffffffffffffffffffff16815260200190815260200160002060009055600360008273ffffffffffffffffffffffffffffffffffffffff16632a7ce0266040518163ffffffff1660e01b815260040160206040518083038186803b15801562000b5557600080fd5b505afa15801562000b6a573d6000803e3d6000fd5b505050506040513d601f19601f8201168201806040525081019062000b909190620028c6565b73ffffffffffffffffffffffffffffffffffffffff1673ffffffffffffffffffffffffffffffffffffffff168152602001908152602001600020600062000bd8919062002646565b5b5b5050565b62000be862002669565b81600260008573ffffffffffffffffffffffffffffffffffffffff1673ffffffffffffffffffffffffffffffffffffffff168152602001908152602001600020541162000c6c576040517f08c379a000000000000000000000000000000000000000000000000000000000815260040162000c639062002cd5565b60405180910390fd5b6000600160008573ffffffffffffffffffffffffffffffffffffffff1673ffffffffffffffffffffffffffffffffffffffff168152602001908152602001600020838154811062000cc25762000cc16200303f565b5b9060005260206000200160009054906101000a900473ffffffffffffffffffffffffffffffffffffffff169050600081905062000cfe62002669565b82816000019073ffffffffffffffffffffffffffffffffffffffff16908173ffffffffffffffffffffffffffffffffffffffff16815250508173ffffffffffffffffffffffffffffffffffffffff16632a7ce0266040518163ffffffff1660e01b815260040160206040518083038186803b15801562000d7d57600080fd5b505afa15801562000d92573d6000803e3d6000fd5b505050506040513d601f19601f8201168201806040525081019062000db89190620028c6565b816020019073ffffffffffffffffffffffffffffffffffffffff16908173ffffffffffffffffffffffffffffffffffffffff16815250508173ffffffffffffffffffffffffffffffffffffffff16634355f1ec6040518163ffffffff1660e01b815260040160206040518083038186803b15801562000e3657600080fd5b505afa15801562000e4b573d6000803e3d6000fd5b505050506040513d601f19601f8201168201806040525081019062000e719190620028c6565b816040019073ffffffffffffffffffffffffffffffffffffffff16908173ffffffffffffffffffffffffffffffffffffffff16815250508173ffffffffffffffffffffffffffffffffffffffff1663235b6ea16040518163ffffffff1660e01b815260040160206040518083038186803b15801562000eef57600080fd5b505afa15801562000f04573d6000803e3d6000fd5b505050506040513d601f19601f8201168201806040525081019062000f2a919062002a6f565b8160600181815250508173ffffffffffffffffffffffffffffffffffffffff1663e8e564d16040518163ffffffff1660e01b815260040160006040518083038186803b15801562000f7a57600080fd5b505afa15801562000f8f573d6000803e3d6000fd5b505050506040513d6000823e3d601f19601f8201168201806040525081019062000fba919062002a1e565b81608001819052508173ffffffffffffffffffffffffffffffffffffffff16637284e4166040518163ffffffff1660e01b815260040160006040518083038186803b1580156200100957600080fd5b505afa1580156200101e573d6000803e3d6000fd5b505050506040513d6000823e3d601f19601f8201168201806040525081019062001049919062002a1e565b8160a0018190525080935050505092915050565b6200106762002669565b81600460008573ffffffffffffffffffffffffffffffffffffffff1673ffffffffffffffffffffffffffffffffffffffff1681526020019081526020016000205411620010eb576040517f08c379a0000000000000000000000000000000000000000000000000000000008152600401620010e29062002cd5565b60405180910390fd5b6000600360008573ffffffffffffffffffffffffffffffffffffffff1673ffffffffffffffffffffffffffffffffffffffff16815260200190815260200160002083815481106200114157620011406200303f565b5b9060005260206000200160009054906101000a900473ffffffffffffffffffffffffffffffffffffffff16905060008190506200117d62002669565b82816000019073ffffffffffffffffffffffffffffffffffffffff16908173ffffffffffffffffffffffffffffffffffffffff16815250508173ffffffffffffffffffffffffffffffffffffffff16632a7ce0266040518163ffffffff1660e01b815260040160206040518083038186803b158015620011fc57600080fd5b505afa15801562001211573d6000803e3d6000fd5b505050506040513d601f19601f82011682018060405250810190620012379190620028c6565b816020019073ffffffffffffffffffffffffffffffffffffffff16908173ffffffffffffffffffffffffffffffffffffffff16815250508173ffffffffffffffffffffffffffffffffffffffff16634355f1ec6040518163ffffffff1660e01b815260040160206040518083038186803b158015620012b557600080fd5b505afa158015620012ca573d6000803e3d6000fd5b505050506040513d601f19601f82011682018060405250810190620012f09190620028c6565b816040019073ffffffffffffffffffffffffffffffffffffffff16908173ffffffffffffffffffffffffffffffffffffffff16815250508173ffffffffffffffffffffffffffffffffffffffff1663235b6ea16040518163ffffffff1660e01b815260040160206040518083038186803b1580156200136e57600080fd5b505afa15801562001383573d6000803e3d6000fd5b505050506040513d601f19601f82011682018060405250810190620013a9919062002a6f565b8160600181815250508173ffffffffffffffffffffffffffffffffffffffff1663e8e564d16040518163ffffffff1660e01b815260040160006040518083038186803b158015620013f957600080fd5b505afa1580156200140e573d6000803e3d6000fd5b505050506040513d6000823e3d601f19601f8201168201806040525081019062001439919062002a1e565b81608001819052508173ffffffffffffffffffffffffffffffffffffffff16637284e4166040518163ffffffff1660e01b815260040160006040518083038186803b1580156200148857600080fd5b505afa1580156200149d573d6000803e3d6000fd5b505050506040513d6000823e3d601f19601f82011682018060405250810190620014c8919062002a1e565b8160a0018190525080935050505092915050565b600082156200152d57600260008373ffffffffffffffffffffffffffffffffffffffff1673ffffffffffffffffffffffffffffffffffffffff16815260200190815260200160002054905062001570565b600460008373ffffffffffffffffffffffffffffffffffffffff1673ffffffffffffffffffffffffffffffffffffffff1681526020019081526020016000205490505b92915050565b6000808154809291906200158a9062002f64565b919050555060008190508073ffffffffffffffffffffffffffffffffffffffff1663ef05f5bd6040518163ffffffff1660e01b8152600401600060405180830381600087803b158015620015dd57600080fd5b505af1158015620015f2573d6000803e3d6000fd5b505050505050565b60026020528060005260406000206000915090505481565b600360205281600052604060002081815481106200162f57600080fd5b906000526020600020016000915091509054906101000a900473ffffffffffffffffffffffffffffffffffffffff1681565b600160205281600052604060002081815481106200167e57600080fd5b906000526020600020016000915091509054906101000a900473ffffffffffffffffffffffffffffffffffffffff1681565b60005481565b600080815480929190620016ca9062002f64565b919050555060008190508073ffffffffffffffffffffffffffffffffffffffff1663b4f54bc7346040518263ffffffff1660e01b81526004016000604051808303818588803b1580156200171d57600080fd5b505af115801562001732573d6000803e3d6000fd5b5050505050600160003273ffffffffffffffffffffffffffffffffffffffff1673ffffffffffffffffffffffffffffffffffffffff168152602001908152602001600020829080600181540180825580915050600190039060005260206000200160009091909190916101000a81548173ffffffffffffffffffffffffffffffffffffffff021916908373ffffffffffffffffffffffffffffffffffffffff160217905550600260003273ffffffffffffffffffffffffffffffffffffffff1673ffffffffffffffffffffffffffffffffffffffff1681526020019081526020016000206000815480929190620018299062002f64565b91905055505050565b60008190508073ffffffffffffffffffffffffffffffffffffffff1663d0d5d9df6040518163ffffffff1660e01b8152600401600060405180830381600087803b1580156200188057600080fd5b505af115801562001895573d6000803e3d6000fd5b505050505050565b346000819055506000348383604051620018b790620026e1565b620018c492919062002c7f565b6040518091039082f0905080158015620018e2573d6000803e3d6000fd5b50905060008190508315620019ee57600160003273ffffffffffffffffffffffffffffffffffffffff1673ffffffffffffffffffffffffffffffffffffffff168152602001908152602001600020819080600181540180825580915050600190039060005260206000200160009091909190916101000a81548173ffffffffffffffffffffffffffffffffffffffff021916908373ffffffffffffffffffffffffffffffffffffffff160217905550600260003273ffffffffffffffffffffffffffffffffffffffff1673ffffffffffffffffffffffffffffffffffffffff1681526020019081526020016000206000815480929190620019e39062002f64565b919050555062001ae6565b600360003273ffffffffffffffffffffffffffffffffffffffff1673ffffffffffffffffffffffffffffffffffffffff168152602001908152602001600020819080600181540180825580915050600190039060005260206000200160009091909190916101000a81548173ffffffffffffffffffffffffffffffffffffffff021916908373ffffffffffffffffffffffffffffffffffffffff160217905550600460003273ffffffffffffffffffffffffffffffffffffffff1673ffffffffffffffffffffffffffffffffffffffff168152602001908152602001600020600081548092919062001ae09062002f64565b91905055505b50505050565b60008081548092919062001b009062002f64565b919050555060008190508073ffffffffffffffffffffffffffffffffffffffff16638eec6039346040518263ffffffff1660e01b81526004016000604051808303818588803b15801562001b5357600080fd5b505af115801562001b68573d6000803e3d6000fd5b5050505050600360003273ffffffffffffffffffffffffffffffffffffffff1673ffffffffffffffffffffffffffffffffffffffff168152602001908152602001600020829080600181540180825580915050600190039060005260206000200160009091909190916101000a81548173ffffffffffffffffffffffffffffffffffffffff021916908373ffffffffffffffffffffffffffffffffffffffff160217905550600460003273ffffffffffffffffffffffffffffffffffffffff1673ffffffffffffffffffffffffffffffffffffffff168152602001908152602001600020600081548092919062001c5f9062002f64565b91905055505050565b60046020528060005260406000206000915090505481565b62001c8a62002669565b600082905062001c9962002669565b83816000019073ffffffffffffffffffffffffffffffffffffffff16908173ffffffffffffffffffffffffffffffffffffffff16815250508173ffffffffffffffffffffffffffffffffffffffff16632a7ce0266040518163ffffffff1660e01b815260040160206040518083038186803b15801562001d1857600080fd5b505afa15801562001d2d573d6000803e3d6000fd5b505050506040513d601f19601f8201168201806040525081019062001d539190620028c6565b816020019073ffffffffffffffffffffffffffffffffffffffff16908173ffffffffffffffffffffffffffffffffffffffff16815250508173ffffffffffffffffffffffffffffffffffffffff16634355f1ec6040518163ffffffff1660e01b815260040160206040518083038186803b15801562001dd157600080fd5b505afa15801562001de6573d6000803e3d6000fd5b505050506040513d601f19601f8201168201806040525081019062001e0c9190620028c6565b816040019073ffffffffffffffffffffffffffffffffffffffff16908173ffffffffffffffffffffffffffffffffffffffff16815250508173ffffffffffffffffffffffffffffffffffffffff1663235b6ea16040518163ffffffff1660e01b815260040160206040518083038186803b15801562001e8a57600080fd5b505afa15801562001e9f573d6000803e3d6000fd5b505050506040513d601f19601f8201168201806040525081019062001ec5919062002a6f565b8160600181815250508173ffffffffffffffffffffffffffffffffffffffff1663e8e564d16040518163ffffffff1660e01b815260040160006040518083038186803b15801562001f1557600080fd5b505afa15801562001f2a573d6000803e3d6000fd5b505050506040513d6000823e3d601f19601f8201168201806040525081019062001f55919062002a1e565b81608001819052508173ffffffffffffffffffffffffffffffffffffffff16637284e4166040518163ffffffff1660e01b815260040160006040518083038186803b15801562001fa457600080fd5b505afa15801562001fb9573d6000803e3d6000fd5b505050506040513d6000823e3d601f19601f8201168201806040525081019062001fe4919062002a1e565b8160a001819052508092505050919050565b6000808273ffffffffffffffffffffffffffffffffffffffff16634355f1ec6040518163ffffffff1660e01b815260040160206040518083038186803b1580156200204057600080fd5b505afa15801562002055573d6000803e3d6000fd5b505050506040513d601f19601f820116820180604052508101906200207b9190620028c6565b90506000600160008373ffffffffffffffffffffffffffffffffffffffff1673ffffffffffffffffffffffffffffffffffffffff16815260200190815260200160002090506000600260008473ffffffffffffffffffffffffffffffffffffffff1673ffffffffffffffffffffffffffffffffffffffff1681526020019081526020016000205490506000859050620021168383836200224c565b945050505050919050565b6000808273ffffffffffffffffffffffffffffffffffffffff16632a7ce0266040518163ffffffff1660e01b815260040160206040518083038186803b1580156200216b57600080fd5b505afa15801562002180573d6000803e3d6000fd5b505050506040513d601f19601f82011682018060405250810190620021a69190620028c6565b90506000600460008373ffffffffffffffffffffffffffffffffffffffff1673ffffffffffffffffffffffffffffffffffffffff16815260200190815260200160002054905060008490506000600360008573ffffffffffffffffffffffffffffffffffffffff1673ffffffffffffffffffffffffffffffffffffffff1681526020019081526020016000209050620022418184846200224c565b945050505050919050565b6000808314156200226157600090506200263f565b60018314156200233e578173ffffffffffffffffffffffffffffffffffffffff16846000815481106200229957620022986200303f565b5b9060005260206000200160009054906101000a900473ffffffffffffffffffffffffffffffffffffffff1673ffffffffffffffffffffffffffffffffffffffff161415620023345783805480620022f557620022f462003010565b5b6001900381819060005260206000200160006101000a81549073ffffffffffffffffffffffffffffffffffffffff02191690559055600190506200263f565b600090506200263f565b60006001846200234f919062002e21565b90506000805b828110156200255657811562002418578660018262002375919062002dc4565b815481106200238957620023886200303f565b5b9060005260206000200160009054906101000a900473ffffffffffffffffffffffffffffffffffffffff16878281548110620023ca57620023c96200303f565b5b9060005260206000200160006101000a81548173ffffffffffffffffffffffffffffffffffffffff021916908373ffffffffffffffffffffffffffffffffffffffff16021790555062002540565b8473ffffffffffffffffffffffffffffffffffffffff168782815481106200244557620024446200303f565b5b9060005260206000200160009054906101000a900473ffffffffffffffffffffffffffffffffffffffff1673ffffffffffffffffffffffffffffffffffffffff1614156200253f576001915086600182620024a1919062002dc4565b81548110620024b557620024b46200303f565b5b9060005260206000200160009054906101000a900473ffffffffffffffffffffffffffffffffffffffff16878281548110620024f657620024f56200303f565b5b9060005260206000200160006101000a81548173ffffffffffffffffffffffffffffffffffffffff021916908373ffffffffffffffffffffffffffffffffffffffff1602179055505b5b80806200254d9062002f64565b91505062002355565b5080158015620025d157508373ffffffffffffffffffffffffffffffffffffffff168683815481106200258e576200258d6200303f565b5b9060005260206000200160009054906101000a900473ffffffffffffffffffffffffffffffffffffffff1673ffffffffffffffffffffffffffffffffffffffff16145b15620025dc57600190505b8015620026385785805480620025f757620025f662003010565b5b6001900381819060005260206000200160006101000a81549073ffffffffffffffffffffffffffffffffffffffff021916905590556001925050506200263f565b6000925050505b9392505050565b5080546000825590600052602060002090810190620026669190620026ef565b50565b6040518060c00160405280600073ffffffffffffffffffffffffffffffffffffffff168152602001600073ffffffffffffffffffffffffffffffffffffffff168152602001600073ffffffffffffffffffffffffffffffffffffffff1681526020016000815260200160608152602001606081525090565b612c1f80620031da83390190565b5b808211156200270a576000816000905550600101620026f0565b5090565b6000620027256200271f8462002d61565b62002d38565b905082815260208101848484011115620027445762002743620030a2565b5b6200275184828562002eba565b509392505050565b6000620027706200276a8462002d61565b62002d38565b9050828152602081018484840111156200278f576200278e620030a2565b5b6200279c84828562002ec9565b509392505050565b600081359050620027b58162003160565b92915050565b600081519050620027cc816200317a565b92915050565b600081359050620027e38162003194565b92915050565b600081519050620027fa81620031ae565b92915050565b600082601f8301126200281857620028176200309d565b5b81356200282a8482602086016200270e565b91505092915050565b600082601f8301126200284b576200284a6200309d565b5b81516200285d84826020860162002759565b91505092915050565b6000813590506200287781620031bf565b92915050565b6000815190506200288e81620031bf565b92915050565b600060208284031215620028ad57620028ac620030ac565b5b6000620028bd84828501620027a4565b91505092915050565b600060208284031215620028df57620028de620030ac565b5b6000620028ef84828501620027bb565b91505092915050565b60008060408385031215620029125762002911620030ac565b5b60006200292285828601620027a4565b9250506020620029358582860162002866565b9150509250929050565b60008060408385031215620029595762002958620030ac565b5b60006200296985828601620027d2565b92505060206200297c85828601620027a4565b9150509250929050565b60008060408385031215620029a0576200299f620030ac565b5b6000620029b085828601620027d2565b925050602083013567ffffffffffffffff811115620029d457620029d3620030a7565b5b620029e28582860162002800565b9150509250929050565b60006020828403121562002a055762002a04620030ac565b5b600062002a1584828501620027e9565b91505092915050565b60006020828403121562002a375762002a36620030ac565b5b600082015167ffffffffffffffff81111562002a585762002a57620030a7565b5b62002a668482850162002833565b91505092915050565b60006020828403121562002a885762002a87620030ac565b5b600062002a98848285016200287d565b91505092915050565b62002aac8162002e5c565b82525050565b62002abd8162002e5c565b82525050565b62002ace8162002e84565b82525050565b600062002ae18262002d97565b62002aed818562002da2565b935062002aff81856020860162002ec9565b62002b0a81620030b1565b840191505092915050565b600062002b228262002d97565b62002b2e818562002db3565b935062002b4081856020860162002ec9565b62002b4b81620030b1565b840191505092915050565b600062002b65603d8362002db3565b915062002b7282620030c2565b604082019050919050565b600062002b8c60298362002db3565b915062002b998262003111565b604082019050919050565b600060c08301600083015162002bbe600086018262002aa1565b50602083015162002bd3602086018262002aa1565b50604083015162002be8604086018262002aa1565b50606083015162002bfd606086018262002c40565b506080830151848203608086015262002c17828262002ad4565b91505060a083015184820360a086015262002c33828262002ad4565b9150508091505092915050565b62002c4b8162002eb0565b82525050565b62002c5c8162002eb0565b82525050565b600060208201905062002c79600083018462002ab2565b92915050565b600060408201905062002c96600083018562002ac3565b818103602083015262002caa818462002b15565b90509392505050565b6000602082019050818103600083015262002cce8162002b56565b9050919050565b6000602082019050818103600083015262002cf08162002b7d565b9050919050565b6000602082019050818103600083015262002d13818462002ba4565b905092915050565b600060208201905062002d32600083018462002c51565b92915050565b600062002d4462002d57565b905062002d52828262002f2e565b919050565b6000604051905090565b600067ffffffffffffffff82111562002d7f5762002d7e6200306e565b5b62002d8a82620030b1565b9050602081019050919050565b600081519050919050565b600082825260208201905092915050565b600082825260208201905092915050565b600062002dd18262002eb0565b915062002dde8362002eb0565b9250827fffffffffffffffffffffffffffffffffffffffffffffffffffffffffffffffff0382111562002e165762002e1562002fb2565b5b828201905092915050565b600062002e2e8262002eb0565b915062002e3b8362002eb0565b92508282101562002e515762002e5062002fb2565b5b828203905092915050565b600062002e698262002e90565b9050919050565b600062002e7d8262002e90565b9050919050565b60008115159050919050565b600073ffffffffffffffffffffffffffffffffffffffff82169050919050565b6000819050919050565b82818337600083830152505050565b60005b8381101562002ee957808201518184015260208101905062002ecc565b8381111562002ef9576000848401525b50505050565b600062002f0c8262002eb0565b9150600082141562002f235762002f2262002fb2565b5b600182039050919050565b62002f3982620030b1565b810181811067ffffffffffffffff8211171562002f5b5762002f5a6200306e565b5b80604052505050565b600062002f718262002eb0565b91507fffffffffffffffffffffffffffffffffffffffffffffffffffffffffffffffff82141562002fa75762002fa662002fb2565b5b600182019050919050565b7f4e487b7100000000000000000000000000000000000000000000000000000000600052601160045260246000fd5b7f4e487b7100000000000000000000000000000000000000000000000000000000600052602160045260246000fd5b7f4e487b7100000000000000000000000000000000000000000000000000000000600052603160045260246000fd5b7f4e487b7100000000000000000000000000000000000000000000000000000000600052603260045260246000fd5b7f4e487b7100000000000000000000000000000000000000000000000000000000600052604160045260246000fd5b600080fd5b600080fd5b600080fd5b600080fd5b6000601f19601f8301169050919050565b7f746f2072656d6f76652074686520636f6e74726163742c2074686520636f6e7460008201527f726163742073746174652073686f756c642062652066696e6973686564000000602082015250565b7f726571756573746564206974656d2073686f756c64206265206c65737320746860008201527f616e206c656e6774680000000000000000000000000000000000000000000000602082015250565b6200316b8162002e5c565b81146200317757600080fd5b50565b620031858162002e70565b81146200319157600080fd5b50565b6200319f8162002e84565b8114620031ab57600080fd5b50565b60078110620031bc57600080fd5b50565b620031ca8162002eb0565b8114620031d657600080fd5b5056fe60806040526000600560006101000a81548160ff0219169083151502179055506000600560016101000a81548160ff0219169083151502179055506000600560026101000a81548160ff02191690831515021790555060405162002c1f38038062002c1f83398181016040528101906200007a919062000787565b4260048190555080600390805190602001906200009992919062000642565b508115620000b757620000b1620000d060201b60201c565b620000c8565b620000c76200038b60201b60201c565b5b505062000fd8565b600762015180620000e2919062000b83565b600454620000f1919062000aee565b421062000135576040517f08c379a00000000000000000000000000000000000000000000000000000000081526004016200012c906200096e565b60405180910390fd5b600034116200017b576040517f08c379a0000000000000000000000000000000000000000000000000000000008152600401620001729062000a5c565b60405180910390fd5b60006003346200018c919062000c9c565b14620001cf576040517f08c379a0000000000000000000000000000000000000000000000000000000008152600401620001c690620009b2565b60405180910390fd5b60006002541415620001f157600334620001ea919062000b4b565b6002819055505b600073ffffffffffffffffffffffffffffffffffffffff16600160009054906101000a900473ffffffffffffffffffffffffffffffffffffffff1673ffffffffffffffffffffffffffffffffffffffff161462000285576040517f08c379a00000000000000000000000000000000000000000000000000000000081526004016200027c90620009f6565b60405180910390fd5b32600160006101000a81548173ffffffffffffffffffffffffffffffffffffffff021916908373ffffffffffffffffffffffffffffffffffffffff1602179055506003600254620002d7919062000b83565b34146200031b576040517f08c379a000000000000000000000000000000000000000000000000000000000815260040162000312906200094c565b60405180910390fd5b600560009054906101000a900460ff16156200036e576040517f08c379a0000000000000000000000000000000000000000000000000000000008152600401620003659062000990565b60405180910390fd5b6001600560006101000a81548160ff021916908315150217905550565b6007620151806200039d919062000b83565b600454620003ac919062000aee565b4210620003f0576040517f08c379a0000000000000000000000000000000000000000000000000000000008152600401620003e7906200096e565b60405180910390fd5b6000341162000436576040517f08c379a00000000000000000000000000000000000000000000000000000000081526004016200042d9062000a5c565b60405180910390fd5b600060023462000447919062000c9c565b146200048a576040517f08c379a00000000000000000000000000000000000000000000000000000000081526004016200048190620009b2565b60405180910390fd5b60006002541415620004ac57600234620004a5919062000b4b565b6002819055505b600073ffffffffffffffffffffffffffffffffffffffff1660008054906101000a900473ffffffffffffffffffffffffffffffffffffffff1673ffffffffffffffffffffffffffffffffffffffff16146200053e576040517f08c379a0000000000000000000000000000000000000000000000000000000008152600401620005359062000a3a565b60405180910390fd5b326000806101000a81548173ffffffffffffffffffffffffffffffffffffffff021916908373ffffffffffffffffffffffffffffffffffffffff160217905550600280546200058e919062000b83565b3414620005d2576040517f08c379a0000000000000000000000000000000000000000000000000000000008152600401620005c990620009d4565b60405180910390fd5b600560019054906101000a900460ff161562000625576040517f08c379a00000000000000000000000000000000000000000000000000000000081526004016200061c9062000a18565b60405180910390fd5b6001600560016101000a81548160ff021916908315150217905550565b828054620006509062000c30565b90600052602060002090601f016020900481019282620006745760008555620006c0565b82601f106200068f57805160ff1916838001178555620006c0565b82800160010185558215620006c0579182015b82811115620006bf578251825591602001919060010190620006a2565b5b509050620006cf9190620006d3565b5090565b5b80821115620006ee576000816000905550600101620006d4565b5090565b600062000709620007038462000aa7565b62000a7e565b90508281526020810184848401111562000728576200072762000d95565b5b6200073584828562000bfa565b509392505050565b6000815190506200074e8162000fbe565b92915050565b600082601f8301126200076c576200076b62000d90565b5b81516200077e848260208601620006f2565b91505092915050565b60008060408385031215620007a157620007a062000d9f565b5b6000620007b1858286016200073d565b925050602083015167ffffffffffffffff811115620007d557620007d462000d9a565b5b620007e38582860162000754565b9150509250929050565b6000620007fc60278362000add565b9150620008098262000db5565b604082019050919050565b60006200082360148362000add565b9150620008308262000e04565b602082019050919050565b60006200084a601b8362000add565b9150620008578262000e2d565b602082019050919050565b60006200087160358362000add565b91506200087e8262000e56565b604082019050919050565b60006200089860278362000add565b9150620008a58262000ea5565b604082019050919050565b6000620008bf601e8362000add565b9150620008cc8262000ef4565b602082019050919050565b6000620008e6601c8362000add565b9150620008f38262000f1d565b602082019050919050565b60006200090d601f8362000add565b91506200091a8262000f46565b602082019050919050565b600062000934602f8362000add565b9150620009418262000f6f565b604082019050919050565b600060208201905081810360008301526200096781620007ed565b9050919050565b60006020820190508181036000830152620009898162000814565b9050919050565b60006020820190508181036000830152620009ab816200083b565b9050919050565b60006020820190508181036000830152620009cd8162000862565b9050919050565b60006020820190508181036000830152620009ef8162000889565b9050919050565b6000602082019050818103600083015262000a1181620008b0565b9050919050565b6000602082019050818103600083015262000a3381620008d7565b9050919050565b6000602082019050818103600083015262000a5581620008fe565b9050919050565b6000602082019050818103600083015262000a778162000925565b9050919050565b600062000a8a62000a9d565b905062000a98828262000c66565b919050565b6000604051905090565b600067ffffffffffffffff82111562000ac55762000ac462000d61565b5b62000ad08262000da4565b9050602081019050919050565b600082825260208201905092915050565b600062000afb8262000bf0565b915062000b088362000bf0565b9250827fffffffffffffffffffffffffffffffffffffffffffffffffffffffffffffffff0382111562000b405762000b3f62000cd4565b5b828201905092915050565b600062000b588262000bf0565b915062000b658362000bf0565b92508262000b785762000b7762000d03565b5b828204905092915050565b600062000b908262000bf0565b915062000b9d8362000bf0565b9250817fffffffffffffffffffffffffffffffffffffffffffffffffffffffffffffffff048311821515161562000bd95762000bd862000cd4565b5b828202905092915050565b60008115159050919050565b6000819050919050565b60005b8381101562000c1a57808201518184015260208101905062000bfd565b8381111562000c2a576000848401525b50505050565b6000600282049050600182168062000c4957607f821691505b6020821081141562000c605762000c5f62000d32565b5b50919050565b62000c718262000da4565b810181811067ffffffffffffffff8211171562000c935762000c9262000d61565b5b80604052505050565b600062000ca98262000bf0565b915062000cb68362000bf0565b92508262000cc95762000cc862000d03565b5b828206905092915050565b7f4e487b7100000000000000000000000000000000000000000000000000000000600052601160045260246000fd5b7f4e487b7100000000000000000000000000000000000000000000000000000000600052601260045260246000fd5b7f4e487b7100000000000000000000000000000000000000000000000000000000600052602260045260246000fd5b7f4e487b7100000000000000000000000000000000000000000000000000000000600052604160045260246000fd5b600080fd5b600080fd5b600080fd5b600080fd5b6000601f19601f8301169050919050565b7f746865206465706f73697465642076616c7565206d75737420657175616c207460008201527f6f2078202a203300000000000000000000000000000000000000000000000000602082015250565b7f636f6e747261637420697320696e616374697665000000000000000000000000600082015250565b7f427579657220686173206e6f7420796574206465706f73697465640000000000600082015250565b7f546865207072696365206f6620746865206465706f736974206d75737420626560008201527f20646976697369626c65206279203220616e6420330000000000000000000000602082015250565b7f746865206465706f73697465642076616c7565206d75737420657175616c207460008201527f6f2078202a203200000000000000000000000000000000000000000000000000602082015250565b7f6275796572206164647265737320686173206e6f74206265656e207365740000600082015250565b7f53656c6c657220686173206e6f7420796574206465706f736974656400000000600082015250565b7f73656c6c6572206164647265737320686173206e6f74206265656e2073657400600082015250565b7f546865207072696365206f6620746865206465706f736974206d75737420626560008201527f2067726561746572207468616e20300000000000000000000000000000000000602082015250565b62000fc98162000be4565b811462000fd557600080fd5b50565b611c378062000fe86000396000f3fe60806040526004361061009c5760003560e01c80638eec6039116100645780638eec6039146101785780639aa13f0414610182578063b4f54bc7146101ad578063d0d5d9df146101b7578063e8e564d1146101ce578063ef05f5bd146101f95761009c565b8063235b6ea1146100a15780632a7ce026146100cc578063378aa701146100f75780634355f1ec146101225780637284e4161461014d575b600080fd5b3480156100ad57600080fd5b506100b6610210565b6040516100c3919061163e565b60405180910390f35b3480156100d857600080fd5b506100e1610216565b6040516100ee9190611446565b60405180910390f35b34801561010357600080fd5b5061010c61023a565b6040516101199190611461565b60405180910390f35b34801561012e57600080fd5b50610137610424565b6040516101449190611446565b60405180910390f35b34801561015957600080fd5b5061016261044a565b60405161016f919061147c565b60405180910390f35b6101806104d8565b005b34801561018e57600080fd5b50610197610772565b6040516101a4919061163e565b60405180910390f35b6101b5610778565b005b3480156101c357600080fd5b506101cc610a16565b005b3480156101da57600080fd5b506101e3610c5d565b6040516101f0919061147c565b60405180910390f35b34801561020557600080fd5b5061020e610fb5565b005b60025481565b60008054906101000a900473ffffffffffffffffffffffffffffffffffffffff1681565b6000600460076201518061024e91906116fc565b61025891906116fc565b6004546102659190611675565b421061028657600047111561027d5760059050610421565b60049050610421565b60008073ffffffffffffffffffffffffffffffffffffffff16600160009054906101000a900473ffffffffffffffffffffffffffffffffffffffff1673ffffffffffffffffffffffffffffffffffffffff1614801561033057508073ffffffffffffffffffffffffffffffffffffffff1660008054906101000a900473ffffffffffffffffffffffffffffffffffffffff1673ffffffffffffffffffffffffffffffffffffffff16145b1561033f576000915050610421565b8073ffffffffffffffffffffffffffffffffffffffff16600160009054906101000a900473ffffffffffffffffffffffffffffffffffffffff1673ffffffffffffffffffffffffffffffffffffffff16141561039f576001915050610421565b8073ffffffffffffffffffffffffffffffffffffffff1660008054906101000a900473ffffffffffffffffffffffffffffffffffffffff1673ffffffffffffffffffffffffffffffffffffffff1614156103fd576002915050610421565b600560029054906101000a900460ff1661041b576003915050610421565b60049150505b90565b600160009054906101000a900473ffffffffffffffffffffffffffffffffffffffff1681565b60038054610457906117ea565b80601f0160208091040260200160405190810160405280929190818152602001828054610483906117ea565b80156104d05780601f106104a5576101008083540402835291602001916104d0565b820191906000526020600020905b8154815290600101906020018083116104b357829003601f168201915b505050505081565b6007620151806104e891906116fc565b6004546104f59190611675565b4210610536576040517f08c379a000000000000000000000000000000000000000000000000000000000815260040161052d906114fe565b60405180910390fd5b60003411610579576040517f08c379a00000000000000000000000000000000000000000000000000000000081526004016105709061161e565b60405180910390fd5b6000600234610588919061181c565b146105c8576040517f08c379a00000000000000000000000000000000000000000000000000000000081526004016105bf9061153e565b60405180910390fd5b600060025414156105e7576002346105e091906116cb565b6002819055505b600073ffffffffffffffffffffffffffffffffffffffff1660008054906101000a900473ffffffffffffffffffffffffffffffffffffffff1673ffffffffffffffffffffffffffffffffffffffff1614610676576040517f08c379a000000000000000000000000000000000000000000000000000000000815260040161066d906115fe565b60405180910390fd5b326000806101000a81548173ffffffffffffffffffffffffffffffffffffffff021916908373ffffffffffffffffffffffffffffffffffffffff160217905550600280546106c491906116fc565b3414610705576040517f08c379a00000000000000000000000000000000000000000000000000000000081526004016106fc9061157e565b60405180910390fd5b600560019054906101000a900460ff1615610755576040517f08c379a000000000000000000000000000000000000000000000000000000000815260040161074c906115be565b60405180910390fd5b6001600560016101000a81548160ff021916908315150217905550565b60045481565b60076201518061078891906116fc565b6004546107959190611675565b42106107d6576040517f08c379a00000000000000000000000000000000000000000000000000000000081526004016107cd906114fe565b60405180910390fd5b60003411610819576040517f08c379a00000000000000000000000000000000000000000000000000000000081526004016108109061161e565b60405180910390fd5b6000600334610828919061181c565b14610868576040517f08c379a000000000000000000000000000000000000000000000000000000000815260040161085f9061153e565b60405180910390fd5b600060025414156108875760033461088091906116cb565b6002819055505b600073ffffffffffffffffffffffffffffffffffffffff16600160009054906101000a900473ffffffffffffffffffffffffffffffffffffffff1673ffffffffffffffffffffffffffffffffffffffff1614610918576040517f08c379a000000000000000000000000000000000000000000000000000000000815260040161090f9061159e565b60405180910390fd5b32600160006101000a81548173ffffffffffffffffffffffffffffffffffffffff021916908373ffffffffffffffffffffffffffffffffffffffff160217905550600360025461096891906116fc565b34146109a9576040517f08c379a00000000000000000000000000000000000000000000000000000000081526004016109a09061149e565b60405180910390fd5b600560009054906101000a900460ff16156109f9576040517f08c379a00000000000000000000000000000000000000000000000000000000081526004016109f09061151e565b60405180910390fd5b6001600560006101000a81548160ff021916908315150217905550565b6004600762015180610a2891906116fc565b610a3291906116fc565b600454610a3f9190611675565b421015610a81576040517f08c379a0000000000000000000000000000000000000000000000000000000008152600401610a789061155e565b60405180910390fd5b60004711610ac4576040517f08c379a0000000000000000000000000000000000000000000000000000000008152600401610abb906114be565b60405180910390fd5b600073ffffffffffffffffffffffffffffffffffffffff16600160009054906101000a900473ffffffffffffffffffffffffffffffffffffffff1673ffffffffffffffffffffffffffffffffffffffff1614610b9257600160009054906101000a900473ffffffffffffffffffffffffffffffffffffffff1673ffffffffffffffffffffffffffffffffffffffff166108fc6003600254610b6591906116fc565b9081150290604051600060405180830381858888f19350505050158015610b90573d6000803e3d6000fd5b505b600073ffffffffffffffffffffffffffffffffffffffff1660008054906101000a900473ffffffffffffffffffffffffffffffffffffffff1673ffffffffffffffffffffffffffffffffffffffff1614610c5b5760008054906101000a900473ffffffffffffffffffffffffffffffffffffffff1673ffffffffffffffffffffffffffffffffffffffff166108fc60028054610c2e91906116fc565b9081150290604051600060405180830381858888f19350505050158015610c59573d6000803e3d6000fd5b505b565b606060006004600762015180610c7391906116fc565b610c7d91906116fc565b600454610c8a9190611675565b4210610d15576000471115610cd7576040518060400160405280601081526020017f436f6e7472616374496e61637469766500000000000000000000000000000000815250915050610fb2565b6040518060400160405280600881526020017f66696e6973686564000000000000000000000000000000000000000000000000815250915050610fb2565b8073ffffffffffffffffffffffffffffffffffffffff16600160009054906101000a900473ffffffffffffffffffffffffffffffffffffffff1673ffffffffffffffffffffffffffffffffffffffff16148015610dbd57508073ffffffffffffffffffffffffffffffffffffffff1660008054906101000a900473ffffffffffffffffffffffffffffffffffffffff1673ffffffffffffffffffffffffffffffffffffffff16145b15610e00576040518060400160405280600f81526020017f73746172744f66436f6e74726163740000000000000000000000000000000000815250915050610fb2565b8073ffffffffffffffffffffffffffffffffffffffff16600160009054906101000a900473ffffffffffffffffffffffffffffffffffffffff1673ffffffffffffffffffffffffffffffffffffffff161415610e94576040518060400160405280600b81526020017f6e65656473414275796572000000000000000000000000000000000000000000815250915050610fb2565b8073ffffffffffffffffffffffffffffffffffffffff1660008054906101000a900473ffffffffffffffffffffffffffffffffffffffff1673ffffffffffffffffffffffffffffffffffffffff161415610f26576040518060400160405280600c81526020017f6e656564734153656c6c65720000000000000000000000000000000000000000815250915050610fb2565b600560029054906101000a900460ff16610f78576040518060400160405280601781526020017f62757965724861734e6f7452656369657665644974656d000000000000000000815250915050610fb2565b6040518060400160405280600881526020017f66696e69736865640000000000000000000000000000000000000000000000008152509150505b90565b600762015180610fc591906116fc565b600454610fd29190611675565b4210611013576040517f08c379a000000000000000000000000000000000000000000000000000000000815260040161100a906114fe565b60405180910390fd5b60036006811115611027576110266118ab565b5b61102f61023a565b6006811115611041576110406118ab565b5b14611081576040517f08c379a0000000000000000000000000000000000000000000000000000000008152600401611078906115de565b60405180910390fd5b600160009054906101000a900473ffffffffffffffffffffffffffffffffffffffff1673ffffffffffffffffffffffffffffffffffffffff163273ffffffffffffffffffffffffffffffffffffffff1614611111576040517f08c379a0000000000000000000000000000000000000000000000000000000008152600401611108906114de565b60405180910390fd5b600160009054906101000a900473ffffffffffffffffffffffffffffffffffffffff1673ffffffffffffffffffffffffffffffffffffffff166108fc6002805461115b91906116fc565b9081150290604051600060405180830381858888f19350505050158015611186573d6000803e3d6000fd5b5060008054906101000a900473ffffffffffffffffffffffffffffffffffffffff1673ffffffffffffffffffffffffffffffffffffffff166108fc60036002546111d091906116fc565b9081150290604051600060405180830381858888f193505050501580156111fb573d6000803e3d6000fd5b506001600560026101000a81548160ff021916908315150217905550565b61122281611756565b82525050565b611231816117a5565b82525050565b600061124282611659565b61124c8185611664565b935061125c8185602086016117b7565b61126581611909565b840191505092915050565b600061127d602783611664565b91506112888261191a565b604082019050919050565b60006112a0601c83611664565b91506112ab82611969565b602082019050919050565b60006112c3603883611664565b91506112ce82611992565b604082019050919050565b60006112e6601483611664565b91506112f1826119e1565b602082019050919050565b6000611309601b83611664565b915061131482611a0a565b602082019050919050565b600061132c603583611664565b915061133782611a33565b604082019050919050565b600061134f601883611664565b915061135a82611a82565b602082019050919050565b6000611372602783611664565b915061137d82611aab565b604082019050919050565b6000611395601e83611664565b91506113a082611afa565b602082019050919050565b60006113b8601c83611664565b91506113c382611b23565b602082019050919050565b60006113db602083611664565b91506113e682611b4c565b602082019050919050565b60006113fe601f83611664565b915061140982611b75565b602082019050919050565b6000611421602f83611664565b915061142c82611b9e565b604082019050919050565b6114408161179b565b82525050565b600060208201905061145b6000830184611219565b92915050565b60006020820190506114766000830184611228565b92915050565b600060208201905081810360008301526114968184611237565b905092915050565b600060208201905081810360008301526114b781611270565b9050919050565b600060208201905081810360008301526114d781611293565b9050919050565b600060208201905081810360008301526114f7816112b6565b9050919050565b60006020820190508181036000830152611517816112d9565b9050919050565b60006020820190508181036000830152611537816112fc565b9050919050565b600060208201905081810360008301526115578161131f565b9050919050565b6000602082019050818103600083015261157781611342565b9050919050565b6000602082019050818103600083015261159781611365565b9050919050565b600060208201905081810360008301526115b781611388565b9050919050565b600060208201905081810360008301526115d7816113ab565b9050919050565b600060208201905081810360008301526115f7816113ce565b9050919050565b60006020820190508181036000830152611617816113f1565b9050919050565b6000602082019050818103600083015261163781611414565b9050919050565b60006020820190506116536000830184611437565b92915050565b600081519050919050565b600082825260208201905092915050565b60006116808261179b565b915061168b8361179b565b9250827fffffffffffffffffffffffffffffffffffffffffffffffffffffffffffffffff038211156116c0576116bf61184d565b5b828201905092915050565b60006116d68261179b565b91506116e18361179b565b9250826116f1576116f061187c565b5b828204905092915050565b60006117078261179b565b91506117128361179b565b9250817fffffffffffffffffffffffffffffffffffffffffffffffffffffffffffffffff048311821515161561174b5761174a61184d565b5b828202905092915050565b60006117618261177b565b9050919050565b600081905061177682611bed565b919050565b600073ffffffffffffffffffffffffffffffffffffffff82169050919050565b6000819050919050565b60006117b082611768565b9050919050565b60005b838110156117d55780820151818401526020810190506117ba565b838111156117e4576000848401525b50505050565b6000600282049050600182168061180257607f821691505b60208210811415611816576118156118da565b5b50919050565b60006118278261179b565b91506118328361179b565b9250826118425761184161187c565b5b828206905092915050565b7f4e487b7100000000000000000000000000000000000000000000000000000000600052601160045260246000fd5b7f4e487b7100000000000000000000000000000000000000000000000000000000600052601260045260246000fd5b7f4e487b7100000000000000000000000000000000000000000000000000000000600052602160045260246000fd5b7f4e487b7100000000000000000000000000000000000000000000000000000000600052602260045260246000fd5b6000601f19601f8301169050919050565b7f746865206465706f73697465642076616c7565206d75737420657175616c207460008201527f6f2078202a203300000000000000000000000000000000000000000000000000602082015250565b7f636f6e7472616374206e6565647320746f20686176652076616c756500000000600082015250565b7f4f6e6c79207468652042757965722063616e207374617465207768656e20746860008201527f657920686176652072656369657665642070726f647563740000000000000000602082015250565b7f636f6e747261637420697320696e616374697665000000000000000000000000600082015250565b7f427579657220686173206e6f7420796574206465706f73697465640000000000600082015250565b7f546865207072696365206f6620746865206465706f736974206d75737420626560008201527f20646976697369626c65206279203220616e6420330000000000000000000000602082015250565b7f636f6e7472616374206973207374696c6c206163746976650000000000000000600082015250565b7f746865206465706f73697465642076616c7565206d75737420657175616c207460008201527f6f2078202a203200000000000000000000000000000000000000000000000000602082015250565b7f6275796572206164647265737320686173206e6f74206265656e207365740000600082015250565b7f53656c6c657220686173206e6f7420796574206465706f736974656400000000600082015250565b7f42757965722073686f756c642062652077616974696e6720666f72206974656d600082015250565b7f73656c6c6572206164647265737320686173206e6f74206265656e2073657400600082015250565b7f546865207072696365206f6620746865206465706f736974206d75737420626560008201527f2067726561746572207468616e20300000000000000000000000000000000000602082015250565b60078110611bfe57611bfd6118ab565b5b5056fea2646970667358221220f073138b69c8568052e17085cdd9c65cb9643131d9639da3d79fe8284069e7f064736f6c63430008070033a26469706673582212205bb00d8f23c84405a1fafe661fcf983c165a453de81767e709c29209cda2d32064736f6c63430008070033",
  "immutableReferences": {},
  "source": "pragma solidity ^ 0.8.0; \r\n\r\n/*\r\nhttps://ethereum.stackexchange.com/questions/28972/who-is-msg-sender-when-calling-a-contract-from-a-contract\r\nuse tx.origin instead of msg.sender\r\n\r\n*/\r\n\r\n\r\n/*\r\nlibrary\r\n- good for structs and pure functions\r\n- is not meant to be mutable like contracts are\r\n*/\r\n\r\nlibrary EscrowTypes {\r\n    // create our EscrowValue struct\r\n    struct EscrowValues {\r\n        address EscrowContract;\r\n        address seller;\r\n        address buyer;\r\n        uint price;\r\n        string state;\r\n        string description;\r\n    }\r\n    \r\n    \r\n    ////Time constants\r\n    uint constant one_day = 60*60*24;\r\n    uint constant one_Week= one_day *7;\r\n    uint constant one_month= one_Week *4;\r\n    \r\n\r\n}\r\n\r\n\r\n\r\ncontract Escrow {\r\n    address payable public _seller;\r\n    address payable public _buyer;\r\n   \r\n    uint public _price;\r\n    string public description;\r\n    uint public contractStart; // meant to test for inactivity\r\n\r\n\r\n    bool buyerHasDeposited = false;\r\n    bool sellerHasDeposited = false;\r\n    bool buyerHasRecievedItem = false;\r\n    \r\n\r\n    enum ContractState{ \r\n            startOfContract,\r\n            needsABuyer,\r\n            needsASeller,\r\n            buyerHasNotRecievedItem,\r\n            finished,\r\n            inactive,\r\n            inactiveAndSentValues\r\n    }\r\n    \r\n    event Deposit(ContractState update);\r\n   \r\n    /*********************\r\n    buyer deposits in p * 3\r\n    seller deposits in p * 2\r\n        - when buyerRecievesItem\r\n            - buyer gets back p * 2\r\n            - seller gets p * 2 (their deposit's back) + y (is extra from the buyer)\r\n    p*2 (for both users) = deposit \r\n    y = payment seller \r\n    ***************************/\r\n    \r\n    constructor(bool isBuyer, string memory _description) payable {\r\n        // what happens if not divisable, how does such statements define outcome\r\n        contractStart = block.timestamp;\r\n        description = _description;\r\n        if(isBuyer){\r\n            setBuyer();\r\n        } else {\r\n            setSeller();\r\n        }\r\n    }\r\n    \r\n    function getCurrentState() public view returns (ContractState){\r\n        /*\r\n        startOfContract,\r\n        needsABuyer,\r\n        needsASeller,\r\n        buyerHasNotRecievedItem,\r\n        finished\r\n        */\r\n        if(block.timestamp >= contractStart + EscrowTypes.one_month){\r\n            if(address(this).balance > 0){\r\n                return ContractState.inactive;\r\n            }\r\n            return ContractState.finished;\r\n        }\r\n        \r\n        address emptyAddress = address(0);\r\n    \r\n        if( _buyer == emptyAddress && _seller == emptyAddress){\r\n            // never be true because the constructor creates either a buyer or seller\r\n            return ContractState.startOfContract;\r\n        }\r\n\r\n        if( _buyer == emptyAddress ){\r\n            return ContractState.needsABuyer; // there is no buyer contract state is needs a buyer\r\n        }\r\n\r\n        if( _seller == emptyAddress ){\r\n            return ContractState.needsASeller; // there is no seller contract state is needs a seller\r\n        }\r\n\r\n        if(!buyerHasRecievedItem){\r\n\r\n            return ContractState.buyerHasNotRecievedItem;\r\n        }\r\n        \r\n        return ContractState.finished;\r\n        \r\n    }\r\n    \r\n    function getCurrentStateString() public view returns (string memory){\r\n        /*\r\n        startOfContract,\r\n        needsABuyer,\r\n        needsASeller,\r\n        buyerHasNotRecievedItem,\r\n        finished\r\n        */\r\n        \r\n        address emptyAddress = address(0);\r\n\r\n        if(block.timestamp >= contractStart + EscrowTypes.one_month){\r\n            if(address(this).balance > 0){\r\n                return \"ContractInactive\";\r\n            }\r\n            return \"finished\";\r\n        }\r\n\r\n\r\n        if( _buyer == emptyAddress && _seller == emptyAddress){\r\n            // never be true because the constructor creates either a buyer or seller\r\n            return \"startOfContract\";\r\n        }\r\n\r\n        if( _buyer == emptyAddress ){\r\n            return \"needsABuyer\";\r\n        }\r\n\r\n        if( _seller == emptyAddress ){\r\n            return \"needsASeller\";\r\n        }\r\n\r\n        if(!buyerHasRecievedItem){\r\n            return \"buyerHasNotRecievedItem\";\r\n        }\r\n        \r\n        return \"finished\";\r\n        \r\n    }\r\n\r\n    \r\n    function setBuyer() payable public {\r\n        require(block.timestamp < contractStart + EscrowTypes.one_Week, \"contract is inactive\");\r\n\r\n        require(msg.value > 0, \"The price of the deposit must be greater than 0\");\r\n        \r\n        require(msg.value % 3 == 0, \"The price of the deposit must be divisible by 2 and 3\");\r\n        // if price is not set\r\n        if(_price == 0){\r\n            // set the price to value / 3\r\n            _price = msg.value / 3;\r\n        }\r\n\r\n        // Ensure buyer has not been set\r\n        // https://ethereum.stackexchange.com/questions/6756/ways-to-see-if-address-is-empty/6762\r\n        require(_buyer == address(0), \"buyer address has not been set\"); //makes ure the address is empty\r\n\r\n        _buyer = payable(tx.origin);// set buyer to be sender\r\n\r\n        require(msg.value == _price * 3, \"the deposited value must equal to x * 3\"); //make sure the value is price by 3\r\n\r\n        require(!buyerHasDeposited, \"Buyer has not yet deposited\"); //make sure the buyer has not deposited yet\r\n\r\n        buyerHasDeposited = true; //  if thats the case \r\n\r\n    }\r\n\r\n    function setSeller() payable public {\r\n        require(block.timestamp < contractStart + EscrowTypes.one_Week, \"contract is inactive\"); //best time suited to check for inactive?\r\n\r\n        require(msg.value > 0, \"The price of the deposit must be greater than 0\");\r\n        \r\n        require(msg.value % 2 == 0, \"The price of the deposit must be divisible by 2 and 3\");\r\n        // if price is not set\r\n\r\n        if(_price == 0){\r\n            // set the price to value / 2\r\n            _price = msg.value / 2;\r\n        }\r\n\r\n        // Ensure the seller has not been set\r\n        require(_seller == address(0), \"seller address has not been set\");\r\n\r\n        // if the seller has not been set and the state still needs addresses, set the seller to the tx.origin\r\n        _seller = payable(tx.origin);\r\n        \r\n        require(msg.value == _price * 2, \"the deposited value must equal to x * 2\");\r\n\r\n        require(!sellerHasDeposited, \"Seller has not yet deposited\");\r\n\r\n        sellerHasDeposited = true;// if all that is true set sellerHasDeposited to true\r\n\r\n    }\r\n    \r\n    \r\n    function buyerRecieveItem() public {\r\n        require(block.timestamp < contractStart + EscrowTypes.one_Week, \"contract is inactive\");\r\n        require(getCurrentState() == ContractState.buyerHasNotRecievedItem, \"Buyer should be waiting for item\");\r\n        require(tx.origin == _buyer, \"Only the Buyer can state when they have recieved product\");\r\n        _buyer.transfer(_price * 2);\r\n        _seller.transfer(_price * 3);\r\n        buyerHasRecievedItem = true;\r\n   }\r\n   \r\n   function contractExpired() public {\r\n        require(block.timestamp >= contractStart + EscrowTypes.one_month, \"contract is still active\");\r\n        require(address(this).balance > 0, \"contract needs to have value\");\r\n        if(_buyer != address(0)) {\r\n            _buyer.transfer(_price * 3);\r\n        }\r\n        if(_seller != address(0)){\r\n            _seller.transfer(_price * 2);\r\n        }\r\n   }\r\n}\r\n\r\n\r\n\r\ncontract EscrowContainer  {\r\n\r\n    uint public ticker;\r\n    // have list and length for buy and seller contracts\r\n    // the creators address -> the contract's address\r\n    mapping (address => address[]) public buyerList;\r\n    mapping (address => uint) public buyerListLength;\r\n    mapping (address => address[]) public sellerList;\r\n    mapping (address => uint) public sellerListLength;\r\n\r\n    function getEscrowListLength(bool fromBuyer, address user) public view returns (uint) {\r\n        if(fromBuyer){\r\n            return buyerListLength[user];\r\n        } else {\r\n            return sellerListLength[user];\r\n        }\r\n    }\r\n\r\n    function contractAddressToStruct(address contractAddress) public view returns (EscrowTypes.EscrowValues memory){\r\n        //  cast the address to be the an instance of the contract\r\n        Escrow e = Escrow(contractAddress);\r\n        // create a struct which will be setting values to\r\n        EscrowTypes.EscrowValues memory val;\r\n        // set the contract address\r\n        val.EscrowContract = contractAddress;\r\n        // set the seller's address\r\n        val.seller = e._seller();\r\n        // set the buyers address\r\n        val.buyer = e._buyer();\r\n        //  set the base price (the seller will recieve 3 * the price and the buyer will recieve 2 * the price);\r\n        val.price = e._price();\r\n        // set the state so that the user has an idea of what has been done and what needs to be done \r\n        val.state = e.getCurrentStateString();\r\n        // set the description\r\n        val.description = e.description();\r\n\r\n        // return the struct0\r\n        return val;\r\n\r\n    }\r\n\r\n    function getBuyerEscrowStruct(address user, uint item) public view returns (EscrowTypes.EscrowValues memory) {\r\n        // this function returns a struct \r\n        // This only will work if the item index is less than the length of the users addresses\r\n        // checking the buyers list\r\n        require(buyerListLength[user] > item, \"requested item should be less than length\");\r\n\r\n        // get the list associated to the buyer's address and get the item's index\r\n        address contractAddress = buyerList[user][item];\r\n        // cast the address to be the an instance of the contract\r\n        Escrow e = Escrow(contractAddress);\r\n        // create struct which we will be setting values to\r\n        EscrowTypes.EscrowValues memory val;\r\n        // set the contract address\r\n        val.EscrowContract = contractAddress;\r\n        // set the seller's address\r\n        val.seller = e._seller();\r\n        // set the buyers address\r\n        val.buyer = e._buyer();\r\n        // set the base price (the seller will recieve 3 * the price and the buyer will recieve 2 * the price);\r\n        val.price = e._price();\r\n        // set the state so that the user has an idea of what has been done and what needs to be done \r\n        val.state = e.getCurrentStateString();\r\n\r\n        // set the description\r\n        val.description = e.description();\r\n\r\n        // we return the struct0\r\n        return val;\r\n    }\r\n    function getSellerEscrowStruct(address user, uint item) public view returns (EscrowTypes.EscrowValues memory) {\r\n        // this is similar to the getBuyerEscrowStruct except it involves the sellers lists\r\n        require(sellerListLength[user] > item, \"requested item should be less than length\");\r\n        address contractAddress = sellerList[user][item];\r\n        Escrow e = Escrow(contractAddress);\r\n        EscrowTypes.EscrowValues memory val;\r\n        val.EscrowContract = contractAddress;\r\n        val.seller = e._seller();\r\n        val.buyer = e._buyer();\r\n        val.price = e._price();\r\n        val.state = e.getCurrentStateString();\r\n        val.description = e.description();\r\n        return val;\r\n    }\r\n\r\n    function createEscrow(bool isBuyer, string memory description) external payable {\r\n        ticker = msg.value;\r\n\r\n        // https://ethereum.stackexchange.com/questions/62031/create-a-child-contract-from-a-parent-contract-and-forward-the-sender-amount-to?rq=1\r\n        // pass value along to child contract\r\n        Escrow newEscrow = new Escrow {value: msg.value }(isBuyer, description);\r\n        // creating a new escrow item\r\n        address newEscrowAddress = address(newEscrow);\r\n        // can cast a contract to an address\r\n        // https://ethereum.stackexchange.com/questions/66613/cast-contract-to-address-payable\r\n        if(isBuyer){\r\n            // if the isBuyer is true,\r\n            // appending the newEscroAddress to the sender's buyerlist\r\n            // this is done to have a list of all the contracts for that user\r\n            buyerList[tx.origin].push(newEscrowAddress);\r\n            buyerListLength[tx.origin]++;\r\n        } else {\r\n            // else we are appending the address to the senders sellerlist\r\n            sellerList[tx.origin].push(newEscrowAddress);\r\n            sellerListLength[tx.origin]++;\r\n        }\r\n\r\n    }\r\n\r\n    function setBuyer(address contractAddress) external payable {\r\n        ticker++;\r\n        // getting the escrow object associated to the address \r\n        Escrow escrow = Escrow(contractAddress);\r\n        // setting the buyer and sending the value\r\n        escrow.setBuyer{value: msg.value }();\r\n        // append the user's buyer list with the new contract address\r\n        buyerList[tx.origin].push(contractAddress);\r\n        buyerListLength[tx.origin]++;\r\n    }\r\n\r\n    function setSeller(address contractAddress) external payable {\r\n        ticker++;\r\n        // getting the escrow object associated to the address \r\n        Escrow escrow = Escrow(contractAddress);\r\n        // setting the seller and sending the value\r\n        escrow.setSeller{value: msg.value }();\r\n        // append the user's seller list with the new contract address\r\n        sellerList[tx.origin].push(contractAddress);\r\n        sellerListLength[tx.origin]++;\r\n    }\r\n    function buyerRecieveItem(address contractAddress) external {\r\n        ticker++;\r\n        // getting the escrow object associated to the address \r\n        Escrow escrow = Escrow(contractAddress);\r\n        // running the buyerRecieveItem function\r\n        escrow.buyerRecieveItem();\r\n    }\r\n\r\n    function contractExpired(address contractAddress) external {\r\n        // getting the escrow object associated to the address\r\n        Escrow escrow = Escrow(contractAddress);\r\n        // running the contractExpired function\r\n        escrow.contractExpired();\r\n    }\r\n\r\n    function cleanUpLists(address contractAddress) external {\r\n        ticker++;\r\n\r\n        // getting the escrow object associated to the address from the argument\r\n        Escrow escrowContract = Escrow(contractAddress);\r\n        \r\n        // only finished contracts should be able to be removed\r\n        require(\r\n            escrowContract.getCurrentState() == Escrow.ContractState.finished,\r\n            \"to remove the contract, the contract state should be finished\"\r\n        );\r\n\r\n        // try to remove the item from the buyer list\r\n        if(removeItemFromBuyerList(escrowContract)){\r\n            // returns true if removed from list\r\n            // subtract length by -1\r\n            buyerListLength[escrowContract._buyer()]--;\r\n\r\n            if(buyerListLength[escrowContract._buyer()] == 0){\r\n                // if there are no more items in the list\r\n                // delete the length and the list\r\n                delete buyerListLength[escrowContract._buyer()];\r\n                delete buyerList[escrowContract._buyer()];\r\n                // https://ethereum.stackexchange.com/questions/15277/how-to-delete-an-element-from-a-mapping/15282\r\n            }\r\n        }\r\n        // try to remove the item from the seller list\r\n        if(removeItemFromSellerList(escrowContract)){\r\n            // returns true if removed from list\r\n            // subtract length by -1\r\n            sellerListLength[escrowContract._seller()]--;\r\n            if(sellerListLength[escrowContract._seller()] == 0){\r\n                // if there are no more items in the list\r\n                // delete the length and the list\r\n                delete sellerListLength[escrowContract._seller()];\r\n                delete sellerList[escrowContract._seller()];\r\n            }\r\n        }\r\n\r\n    }\r\n\r\n    function removeItemFromBuyerList(Escrow escrow) internal returns (bool){\r\n        // With the escrow, get the buyer's address\r\n        address buyer = escrow._buyer();\r\n        // with the buyer's address, get the list associated with the buyer\r\n        address[] storage buyerListOfAddress = buyerList[buyer];\r\n        // and the length associated to that buyer's list\r\n        uint length = buyerListLength[buyer];\r\n        // With the escrow also get the address which looking to remove\r\n        address contractAddress = address(escrow);\r\n\r\n        /* to remove an item from the array,\r\n            - the array\r\n            - length of the array\r\n            - the address thats being removed\r\n        */\r\n        return removeAddressFromArray(\r\n            buyerListOfAddress,\r\n            length,\r\n            contractAddress\r\n        );\r\n    }\r\n    function removeItemFromSellerList(Escrow escrow) internal returns (bool){\r\n        // this function is similar to the one above featuring removing an item from the buyer's list\r\n        address seller = escrow._seller();\r\n        uint length = sellerListLength[seller];\r\n        address contractAddress = address(escrow);\r\n\r\n        // want to remove an entry from the list sellerList\r\n        address[] storage sellerListOfAddress = sellerList[seller];\r\n        \r\n        return removeAddressFromArray(sellerListOfAddress, length, contractAddress);\r\n   }\r\n\r\n    \r\n    function removeAddressFromArray(address[] storage list, uint length, address contractAddress) internal returns (bool){\r\n        // if there are no items\r\n        if(length == 0){\r\n            // exit (return false because no item removed)\r\n            return false;\r\n        }\r\n        // if the length is one\r\n        if(length == 1){\r\n            // test to see if the item is equal to the search address\r\n            if(list[0] == contractAddress){\r\n                // if yes, remove the item\r\n                list.pop();\r\n                // and return true\r\n                return true;\r\n            }\r\n            // if the item is not equal, not removing it\r\n            // return false\r\n            return false;\r\n        }\r\n        // inorder to remove an item from an array\r\n        // set the current item equal to the item that is 1 above it\r\n        uint lastItem = length - 1;\r\n        bool found = false;\r\n        for(uint i; i < lastItem; i++){\r\n            if(found){\r\n                // already found the item\r\n                //  setting the current item equal to the one above it\r\n                list[i] = list[i + 1];\r\n            } else if(list[i] == contractAddress){\r\n                // if the current item is the address\r\n                // set true\r\n                found = true;\r\n                // set the current item to the one above it\r\n                list[i] = list[i + 1];\r\n            }\r\n        }\r\n        if(!found && list[lastItem] == contractAddress){\r\n            found = true;\r\n        }\r\n        if(found){\r\n            //removing the last one if it was found\r\n            list.pop();\r\n            return true;\r\n        }\r\n        return false;\r\n    }\r\n}",
  "sourcePath": "C:\\Users\\Dalts\\Desktop\\TradeTrust\\contracts\\escrow.sol",
  "compiler": {
    "name": "solc",
    "version": "0.8.7+commit.e28d00a7.Emscripten.clang"
  },
  "schemaVersion": "3.4.3",
  "updatedAt": "2021-08-16T02:35:07.642Z",
  "networkType": "ethereum",
  "devdoc": {
    "kind": "dev",
    "methods": {},
    "version": 1
  },
  "userdoc": {
    "kind": "user",
    "methods": {},
    "version": 1
  }
}