{
  "contractName": "Example",
  "abi": [
    {
      "inputs": [
        {
          "internalType": "bool",
          "name": "isBuyer",
          "type": "bool"
        },
        {
          "internalType": "string",
          "name": "_description",
          "type": "string"
        }
      ],
      "stateMutability": "payable",
      "type": "constructor"
    },
    {
      "inputs": [],
      "name": "_buyer",
      "outputs": [
        {
          "internalType": "address payable",
          "name": "",
          "type": "address"
        }
      ],
      "stateMutability": "view",
      "type": "function"
    },
    {
      "inputs": [],
      "name": "_price",
      "outputs": [
        {
          "internalType": "uint256",
          "name": "",
          "type": "uint256"
        }
      ],
      "stateMutability": "view",
      "type": "function"
    },
    {
      "inputs": [],
      "name": "_seller",
      "outputs": [
        {
          "internalType": "address payable",
          "name": "",
          "type": "address"
        }
      ],
      "stateMutability": "view",
      "type": "function"
    },
    {
      "inputs": [],
      "name": "contractStart",
      "outputs": [
        {
          "internalType": "uint256",
          "name": "",
          "type": "uint256"
        }
      ],
      "stateMutability": "view",
      "type": "function"
    },
    {
      "inputs": [],
      "name": "description",
      "outputs": [
        {
          "internalType": "string",
          "name": "",
          "type": "string"
        }
      ],
      "stateMutability": "view",
      "type": "function"
    },
    {
      "inputs": [],
      "name": "getCurrentState",
      "outputs": [
        {
          "internalType": "enum Example.ContractState",
          "name": "",
          "type": "uint8"
        }
      ],
      "stateMutability": "view",
      "type": "function"
    },
    {
      "inputs": [],
      "name": "setBuyer",
      "outputs": [],
      "stateMutability": "payable",
      "type": "function"
    },
    {
      "inputs": [],
      "name": "setSeller",
      "outputs": [],
      "stateMutability": "payable",
      "type": "function"
    },
    {
      "inputs": [],
      "name": "buyerRecieveItem",
      "outputs": [],
      "stateMutability": "nonpayable",
      "type": "function"
    },
    {
      "inputs": [],
      "name": "contractExpired",
      "outputs": [],
      "stateMutability": "nonpayable",
      "type": "function"
    }
  ],
  "bytecode": "0x60806040526000600560006101000a81548160ff0219169083151502179055506000600560016101000a81548160ff0219169083151502179055506000600560026101000a81548160ff021916908315150217905550604051620028913803806200289183398181016040528101906200007a919062000787565b4260048190555080600390805190602001906200009992919062000642565b508115620000b757620000b1620000d060201b60201c565b620000c8565b620000c76200038b60201b60201c565b5b505062000fd8565b600762015180620000e2919062000b83565b600454620000f1919062000aee565b421062000135576040517f08c379a00000000000000000000000000000000000000000000000000000000081526004016200012c906200096e565b60405180910390fd5b600034116200017b576040517f08c379a0000000000000000000000000000000000000000000000000000000008152600401620001729062000a5c565b60405180910390fd5b60006003346200018c919062000c9c565b14620001cf576040517f08c379a0000000000000000000000000000000000000000000000000000000008152600401620001c690620009b2565b60405180910390fd5b60006002541415620001f157600334620001ea919062000b4b565b6002819055505b600073ffffffffffffffffffffffffffffffffffffffff16600160009054906101000a900473ffffffffffffffffffffffffffffffffffffffff1673ffffffffffffffffffffffffffffffffffffffff161462000285576040517f08c379a00000000000000000000000000000000000000000000000000000000081526004016200027c90620009f6565b60405180910390fd5b32600160006101000a81548173ffffffffffffffffffffffffffffffffffffffff021916908373ffffffffffffffffffffffffffffffffffffffff1602179055506003600254620002d7919062000b83565b34146200031b576040517f08c379a000000000000000000000000000000000000000000000000000000000815260040162000312906200094c565b60405180910390fd5b600560009054906101000a900460ff16156200036e576040517f08c379a0000000000000000000000000000000000000000000000000000000008152600401620003659062000990565b60405180910390fd5b6001600560006101000a81548160ff021916908315150217905550565b6007620151806200039d919062000b83565b600454620003ac919062000aee565b4210620003f0576040517f08c379a0000000000000000000000000000000000000000000000000000000008152600401620003e7906200096e565b60405180910390fd5b6000341162000436576040517f08c379a00000000000000000000000000000000000000000000000000000000081526004016200042d9062000a5c565b60405180910390fd5b600060023462000447919062000c9c565b146200048a576040517f08c379a00000000000000000000000000000000000000000000000000000000081526004016200048190620009b2565b60405180910390fd5b60006002541415620004ac57600234620004a5919062000b4b565b6002819055505b600073ffffffffffffffffffffffffffffffffffffffff1660008054906101000a900473ffffffffffffffffffffffffffffffffffffffff1673ffffffffffffffffffffffffffffffffffffffff16146200053e576040517f08c379a0000000000000000000000000000000000000000000000000000000008152600401620005359062000a3a565b60405180910390fd5b326000806101000a81548173ffffffffffffffffffffffffffffffffffffffff021916908373ffffffffffffffffffffffffffffffffffffffff160217905550600280546200058e919062000b83565b3414620005d2576040517f08c379a0000000000000000000000000000000000000000000000000000000008152600401620005c990620009d4565b60405180910390fd5b600560019054906101000a900460ff161562000625576040517f08c379a00000000000000000000000000000000000000000000000000000000081526004016200061c9062000a18565b60405180910390fd5b6001600560016101000a81548160ff021916908315150217905550565b828054620006509062000c30565b90600052602060002090601f016020900481019282620006745760008555620006c0565b82601f106200068f57805160ff1916838001178555620006c0565b82800160010185558215620006c0579182015b82811115620006bf578251825591602001919060010190620006a2565b5b509050620006cf9190620006d3565b5090565b5b80821115620006ee576000816000905550600101620006d4565b5090565b600062000709620007038462000aa7565b62000a7e565b90508281526020810184848401111562000728576200072762000d95565b5b6200073584828562000bfa565b509392505050565b6000815190506200074e8162000fbe565b92915050565b600082601f8301126200076c576200076b62000d90565b5b81516200077e848260208601620006f2565b91505092915050565b60008060408385031215620007a157620007a062000d9f565b5b6000620007b1858286016200073d565b925050602083015167ffffffffffffffff811115620007d557620007d462000d9a565b5b620007e38582860162000754565b9150509250929050565b6000620007fc60278362000add565b9150620008098262000db5565b604082019050919050565b60006200082360148362000add565b9150620008308262000e04565b602082019050919050565b60006200084a601b8362000add565b9150620008578262000e2d565b602082019050919050565b60006200087160358362000add565b91506200087e8262000e56565b604082019050919050565b60006200089860278362000add565b9150620008a58262000ea5565b604082019050919050565b6000620008bf601e8362000add565b9150620008cc8262000ef4565b602082019050919050565b6000620008e6601c8362000add565b9150620008f38262000f1d565b602082019050919050565b60006200090d601f8362000add565b91506200091a8262000f46565b602082019050919050565b600062000934602f8362000add565b9150620009418262000f6f565b604082019050919050565b600060208201905081810360008301526200096781620007ed565b9050919050565b60006020820190508181036000830152620009898162000814565b9050919050565b60006020820190508181036000830152620009ab816200083b565b9050919050565b60006020820190508181036000830152620009cd8162000862565b9050919050565b60006020820190508181036000830152620009ef8162000889565b9050919050565b6000602082019050818103600083015262000a1181620008b0565b9050919050565b6000602082019050818103600083015262000a3381620008d7565b9050919050565b6000602082019050818103600083015262000a5581620008fe565b9050919050565b6000602082019050818103600083015262000a778162000925565b9050919050565b600062000a8a62000a9d565b905062000a98828262000c66565b919050565b6000604051905090565b600067ffffffffffffffff82111562000ac55762000ac462000d61565b5b62000ad08262000da4565b9050602081019050919050565b600082825260208201905092915050565b600062000afb8262000bf0565b915062000b088362000bf0565b9250827fffffffffffffffffffffffffffffffffffffffffffffffffffffffffffffffff0382111562000b405762000b3f62000cd4565b5b828201905092915050565b600062000b588262000bf0565b915062000b658362000bf0565b92508262000b785762000b7762000d03565b5b828204905092915050565b600062000b908262000bf0565b915062000b9d8362000bf0565b9250817fffffffffffffffffffffffffffffffffffffffffffffffffffffffffffffffff048311821515161562000bd95762000bd862000cd4565b5b828202905092915050565b60008115159050919050565b6000819050919050565b60005b8381101562000c1a57808201518184015260208101905062000bfd565b8381111562000c2a576000848401525b50505050565b6000600282049050600182168062000c4957607f821691505b6020821081141562000c605762000c5f62000d32565b5b50919050565b62000c718262000da4565b810181811067ffffffffffffffff8211171562000c935762000c9262000d61565b5b80604052505050565b600062000ca98262000bf0565b915062000cb68362000bf0565b92508262000cc95762000cc862000d03565b5b828206905092915050565b7f4e487b7100000000000000000000000000000000000000000000000000000000600052601160045260246000fd5b7f4e487b7100000000000000000000000000000000000000000000000000000000600052601260045260246000fd5b7f4e487b7100000000000000000000000000000000000000000000000000000000600052602260045260246000fd5b7f4e487b7100000000000000000000000000000000000000000000000000000000600052604160045260246000fd5b600080fd5b600080fd5b600080fd5b600080fd5b6000601f19601f8301169050919050565b7f746865206465706f73697465642076616c7565206d75737420657175616c207460008201527f6f2078202a203300000000000000000000000000000000000000000000000000602082015250565b7f636f6e747261637420697320696e616374697665000000000000000000000000600082015250565b7f427579657220686173206e6f7420796574206465706f73697465640000000000600082015250565b7f546865207072696365206f6620746865206465706f736974206d75737420626560008201527f20646976697369626c65206279203220616e6420330000000000000000000000602082015250565b7f746865206465706f73697465642076616c7565206d75737420657175616c207460008201527f6f2078202a203200000000000000000000000000000000000000000000000000602082015250565b7f6275796572206164647265737320686173206e6f74206265656e207365740000600082015250565b7f53656c6c657220686173206e6f7420796574206465706f736974656400000000600082015250565b7f73656c6c6572206164647265737320686173206e6f74206265656e2073657400600082015250565b7f546865207072696365206f6620746865206465706f736974206d75737420626560008201527f2067726561746572207468616e20300000000000000000000000000000000000602082015250565b62000fc98162000be4565b811462000fd557600080fd5b50565b6118a98062000fe86000396000f3fe6080604052600436106100915760003560e01c80638eec6039116100595780638eec60391461016d5780639aa13f0414610177578063b4f54bc7146101a2578063d0d5d9df146101ac578063ef05f5bd146101c357610091565b8063235b6ea1146100965780632a7ce026146100c1578063378aa701146100ec5780634355f1ec146101175780637284e41614610142575b600080fd5b3480156100a257600080fd5b506100ab6101da565b6040516100b891906112b0565b60405180910390f35b3480156100cd57600080fd5b506100d66101e0565b6040516100e391906110b8565b60405180910390f35b3480156100f857600080fd5b50610101610204565b60405161010e91906110d3565b60405180910390f35b34801561012357600080fd5b5061012c6103ee565b60405161013991906110b8565b60405180910390f35b34801561014e57600080fd5b50610157610414565b60405161016491906110ee565b60405180910390f35b6101756104a2565b005b34801561018357600080fd5b5061018c61073c565b60405161019991906112b0565b60405180910390f35b6101aa610742565b005b3480156101b857600080fd5b506101c16109e0565b005b3480156101cf57600080fd5b506101d8610c27565b005b60025481565b60008054906101000a900473ffffffffffffffffffffffffffffffffffffffff1681565b60006004600762015180610218919061136e565b610222919061136e565b60045461022f91906112e7565b421061025057600047111561024757600590506103eb565b600490506103eb565b60008073ffffffffffffffffffffffffffffffffffffffff16600160009054906101000a900473ffffffffffffffffffffffffffffffffffffffff1673ffffffffffffffffffffffffffffffffffffffff161480156102fa57508073ffffffffffffffffffffffffffffffffffffffff1660008054906101000a900473ffffffffffffffffffffffffffffffffffffffff1673ffffffffffffffffffffffffffffffffffffffff16145b156103095760009150506103eb565b8073ffffffffffffffffffffffffffffffffffffffff16600160009054906101000a900473ffffffffffffffffffffffffffffffffffffffff1673ffffffffffffffffffffffffffffffffffffffff1614156103695760019150506103eb565b8073ffffffffffffffffffffffffffffffffffffffff1660008054906101000a900473ffffffffffffffffffffffffffffffffffffffff1673ffffffffffffffffffffffffffffffffffffffff1614156103c75760029150506103eb565b600560029054906101000a900460ff166103e55760039150506103eb565b60049150505b90565b600160009054906101000a900473ffffffffffffffffffffffffffffffffffffffff1681565b600380546104219061145c565b80601f016020809104026020016040519081016040528092919081815260200182805461044d9061145c565b801561049a5780601f1061046f5761010080835404028352916020019161049a565b820191906000526020600020905b81548152906001019060200180831161047d57829003601f168201915b505050505081565b6007620151806104b2919061136e565b6004546104bf91906112e7565b4210610500576040517f08c379a00000000000000000000000000000000000000000000000000000000081526004016104f790611170565b60405180910390fd5b60003411610543576040517f08c379a000000000000000000000000000000000000000000000000000000000815260040161053a90611290565b60405180910390fd5b6000600234610552919061148e565b14610592576040517f08c379a0000000000000000000000000000000000000000000000000000000008152600401610589906111b0565b60405180910390fd5b600060025414156105b1576002346105aa919061133d565b6002819055505b600073ffffffffffffffffffffffffffffffffffffffff1660008054906101000a900473ffffffffffffffffffffffffffffffffffffffff1673ffffffffffffffffffffffffffffffffffffffff1614610640576040517f08c379a000000000000000000000000000000000000000000000000000000000815260040161063790611270565b60405180910390fd5b326000806101000a81548173ffffffffffffffffffffffffffffffffffffffff021916908373ffffffffffffffffffffffffffffffffffffffff1602179055506002805461068e919061136e565b34146106cf576040517f08c379a00000000000000000000000000000000000000000000000000000000081526004016106c6906111f0565b60405180910390fd5b600560019054906101000a900460ff161561071f576040517f08c379a000000000000000000000000000000000000000000000000000000000815260040161071690611230565b60405180910390fd5b6001600560016101000a81548160ff021916908315150217905550565b60045481565b600762015180610752919061136e565b60045461075f91906112e7565b42106107a0576040517f08c379a000000000000000000000000000000000000000000000000000000000815260040161079790611170565b60405180910390fd5b600034116107e3576040517f08c379a00000000000000000000000000000000000000000000000000000000081526004016107da90611290565b60405180910390fd5b60006003346107f2919061148e565b14610832576040517f08c379a0000000000000000000000000000000000000000000000000000000008152600401610829906111b0565b60405180910390fd5b600060025414156108515760033461084a919061133d565b6002819055505b600073ffffffffffffffffffffffffffffffffffffffff16600160009054906101000a900473ffffffffffffffffffffffffffffffffffffffff1673ffffffffffffffffffffffffffffffffffffffff16146108e2576040517f08c379a00000000000000000000000000000000000000000000000000000000081526004016108d990611210565b60405180910390fd5b32600160006101000a81548173ffffffffffffffffffffffffffffffffffffffff021916908373ffffffffffffffffffffffffffffffffffffffff1602179055506003600254610932919061136e565b3414610973576040517f08c379a000000000000000000000000000000000000000000000000000000000815260040161096a90611110565b60405180910390fd5b600560009054906101000a900460ff16156109c3576040517f08c379a00000000000000000000000000000000000000000000000000000000081526004016109ba90611190565b60405180910390fd5b6001600560006101000a81548160ff021916908315150217905550565b60046007620151806109f2919061136e565b6109fc919061136e565b600454610a0991906112e7565b421015610a4b576040517f08c379a0000000000000000000000000000000000000000000000000000000008152600401610a42906111d0565b60405180910390fd5b60004711610a8e576040517f08c379a0000000000000000000000000000000000000000000000000000000008152600401610a8590611130565b60405180910390fd5b600073ffffffffffffffffffffffffffffffffffffffff16600160009054906101000a900473ffffffffffffffffffffffffffffffffffffffff1673ffffffffffffffffffffffffffffffffffffffff1614610b5c57600160009054906101000a900473ffffffffffffffffffffffffffffffffffffffff1673ffffffffffffffffffffffffffffffffffffffff166108fc6003600254610b2f919061136e565b9081150290604051600060405180830381858888f19350505050158015610b5a573d6000803e3d6000fd5b505b600073ffffffffffffffffffffffffffffffffffffffff1660008054906101000a900473ffffffffffffffffffffffffffffffffffffffff1673ffffffffffffffffffffffffffffffffffffffff1614610c255760008054906101000a900473ffffffffffffffffffffffffffffffffffffffff1673ffffffffffffffffffffffffffffffffffffffff166108fc60028054610bf8919061136e565b9081150290604051600060405180830381858888f19350505050158015610c23573d6000803e3d6000fd5b505b565b600762015180610c37919061136e565b600454610c4491906112e7565b4210610c85576040517f08c379a0000000000000000000000000000000000000000000000000000000008152600401610c7c90611170565b60405180910390fd5b60036006811115610c9957610c9861151d565b5b610ca1610204565b6006811115610cb357610cb261151d565b5b14610cf3576040517f08c379a0000000000000000000000000000000000000000000000000000000008152600401610cea90611250565b60405180910390fd5b600160009054906101000a900473ffffffffffffffffffffffffffffffffffffffff1673ffffffffffffffffffffffffffffffffffffffff163273ffffffffffffffffffffffffffffffffffffffff1614610d83576040517f08c379a0000000000000000000000000000000000000000000000000000000008152600401610d7a90611150565b60405180910390fd5b600160009054906101000a900473ffffffffffffffffffffffffffffffffffffffff1673ffffffffffffffffffffffffffffffffffffffff166108fc60028054610dcd919061136e565b9081150290604051600060405180830381858888f19350505050158015610df8573d6000803e3d6000fd5b5060008054906101000a900473ffffffffffffffffffffffffffffffffffffffff1673ffffffffffffffffffffffffffffffffffffffff166108fc6003600254610e42919061136e565b9081150290604051600060405180830381858888f19350505050158015610e6d573d6000803e3d6000fd5b506001600560026101000a81548160ff021916908315150217905550565b610e94816113c8565b82525050565b610ea381611417565b82525050565b6000610eb4826112cb565b610ebe81856112d6565b9350610ece818560208601611429565b610ed78161157b565b840191505092915050565b6000610eef6027836112d6565b9150610efa8261158c565b604082019050919050565b6000610f12601c836112d6565b9150610f1d826115db565b602082019050919050565b6000610f356038836112d6565b9150610f4082611604565b604082019050919050565b6000610f586014836112d6565b9150610f6382611653565b602082019050919050565b6000610f7b601b836112d6565b9150610f868261167c565b602082019050919050565b6000610f9e6035836112d6565b9150610fa9826116a5565b604082019050919050565b6000610fc16018836112d6565b9150610fcc826116f4565b602082019050919050565b6000610fe46027836112d6565b9150610fef8261171d565b604082019050919050565b6000611007601e836112d6565b91506110128261176c565b602082019050919050565b600061102a601c836112d6565b915061103582611795565b602082019050919050565b600061104d6020836112d6565b9150611058826117be565b602082019050919050565b6000611070601f836112d6565b915061107b826117e7565b602082019050919050565b6000611093602f836112d6565b915061109e82611810565b604082019050919050565b6110b28161140d565b82525050565b60006020820190506110cd6000830184610e8b565b92915050565b60006020820190506110e86000830184610e9a565b92915050565b600060208201905081810360008301526111088184610ea9565b905092915050565b6000602082019050818103600083015261112981610ee2565b9050919050565b6000602082019050818103600083015261114981610f05565b9050919050565b6000602082019050818103600083015261116981610f28565b9050919050565b6000602082019050818103600083015261118981610f4b565b9050919050565b600060208201905081810360008301526111a981610f6e565b9050919050565b600060208201905081810360008301526111c981610f91565b9050919050565b600060208201905081810360008301526111e981610fb4565b9050919050565b6000602082019050818103600083015261120981610fd7565b9050919050565b6000602082019050818103600083015261122981610ffa565b9050919050565b600060208201905081810360008301526112498161101d565b9050919050565b6000602082019050818103600083015261126981611040565b9050919050565b6000602082019050818103600083015261128981611063565b9050919050565b600060208201905081810360008301526112a981611086565b9050919050565b60006020820190506112c560008301846110a9565b92915050565b600081519050919050565b600082825260208201905092915050565b60006112f28261140d565b91506112fd8361140d565b9250827fffffffffffffffffffffffffffffffffffffffffffffffffffffffffffffffff03821115611332576113316114bf565b5b828201905092915050565b60006113488261140d565b91506113538361140d565b925082611363576113626114ee565b5b828204905092915050565b60006113798261140d565b91506113848361140d565b9250817fffffffffffffffffffffffffffffffffffffffffffffffffffffffffffffffff04831182151516156113bd576113bc6114bf565b5b828202905092915050565b60006113d3826113ed565b9050919050565b60008190506113e88261185f565b919050565b600073ffffffffffffffffffffffffffffffffffffffff82169050919050565b6000819050919050565b6000611422826113da565b9050919050565b60005b8381101561144757808201518184015260208101905061142c565b83811115611456576000848401525b50505050565b6000600282049050600182168061147457607f821691505b602082108114156114885761148761154c565b5b50919050565b60006114998261140d565b91506114a48361140d565b9250826114b4576114b36114ee565b5b828206905092915050565b7f4e487b7100000000000000000000000000000000000000000000000000000000600052601160045260246000fd5b7f4e487b7100000000000000000000000000000000000000000000000000000000600052601260045260246000fd5b7f4e487b7100000000000000000000000000000000000000000000000000000000600052602160045260246000fd5b7f4e487b7100000000000000000000000000000000000000000000000000000000600052602260045260246000fd5b6000601f19601f8301169050919050565b7f746865206465706f73697465642076616c7565206d75737420657175616c207460008201527f6f2078202a203300000000000000000000000000000000000000000000000000602082015250565b7f636f6e7472616374206e6565647320746f20686176652076616c756500000000600082015250565b7f4f6e6c79207468652042757965722063616e207374617465207768656e20746860008201527f657920686176652072656369657665642070726f647563740000000000000000602082015250565b7f636f6e747261637420697320696e616374697665000000000000000000000000600082015250565b7f427579657220686173206e6f7420796574206465706f73697465640000000000600082015250565b7f546865207072696365206f6620746865206465706f736974206d75737420626560008201527f20646976697369626c65206279203220616e6420330000000000000000000000602082015250565b7f636f6e7472616374206973207374696c6c206163746976650000000000000000600082015250565b7f746865206465706f73697465642076616c7565206d75737420657175616c207460008201527f6f2078202a203200000000000000000000000000000000000000000000000000602082015250565b7f6275796572206164647265737320686173206e6f74206265656e207365740000600082015250565b7f53656c6c657220686173206e6f7420796574206465706f736974656400000000600082015250565b7f42757965722073686f756c642062652077616974696e6720666f72206974656d600082015250565b7f73656c6c6572206164647265737320686173206e6f74206265656e2073657400600082015250565b7f546865207072696365206f6620746865206465706f736974206d75737420626560008201527f2067726561746572207468616e20300000000000000000000000000000000000602082015250565b600781106118705761186f61151d565b5b5056fea2646970667358221220d720b11a0f2c2a0b32468ef4b44ea1546685780858b21579c5caba8232b76ce664736f6c63430008070033",
  "immutableReferences": {},
  "source": "pragma solidity ^ 0.8.0; \r\n\r\n/*\r\nhttps://ethereum.stackexchange.com/questions/28972/who-is-msg-sender-when-calling-a-contract-from-a-contract\r\nuse tx.origin instead of msg.sender\r\n\r\n*/\r\n\r\n\r\n/*\r\nlibrary\r\n- good for structs and pure functions\r\n- is not meant to be mutable like contracts are\r\n*/\r\n\r\nlibrary EscrowTypes {\r\n    // create our EscrowValue struct\r\n    struct EscrowValues {\r\n        address EscrowContract;\r\n        address seller;\r\n        address buyer;\r\n        uint price;\r\n        string state;\r\n        string description;\r\n    }\r\n    \r\n    \r\n    ////Time constants\r\n    uint constant one_day = 60*60*24;\r\n    uint constant one_Week= one_day *7;\r\n    uint constant one_month= one_Week *4;\r\n    \r\n\r\n}\r\n\r\ncontract Example {\r\n    address payable public _seller;\r\n    address payable public _buyer;\r\n   \r\n    uint public _price;\r\n    string public description;\r\n    uint public contractStart; // meant to test for inactivity\r\n\r\n    bool buyerHasDeposited = false;\r\n    bool sellerHasDeposited = false;\r\n    bool buyerHasRecievedItem = false;\r\n\r\n\r\n    enum ContractState{ \r\n            startOfContract,\r\n            needsABuyer,\r\n            needsASeller,\r\n            buyerHasNotRecievedItem,\r\n            finished,\r\n            inactive,\r\n            inactiveAndSentValues\r\n    }\r\n\r\n    function getCurrentState() public view returns (ContractState){\r\n        /*\r\n        startOfContract,\r\n        needsABuyer,\r\n        needsASeller,\r\n        buyerHasNotRecievedItem,\r\n        finished\r\n        */\r\n        if(block.timestamp >= contractStart + EscrowTypes.one_month){\r\n            if(address(this).balance > 0){\r\n                return ContractState.inactive;\r\n            }\r\n            return ContractState.finished;\r\n        }\r\n        \r\n        address emptyAddress = address(0);\r\n    \r\n        if( _buyer == emptyAddress && _seller == emptyAddress){\r\n            // never be true because the constructor creates either a buyer or seller\r\n            return ContractState.startOfContract;\r\n        }\r\n\r\n        if( _buyer == emptyAddress ){\r\n            return ContractState.needsABuyer; // there is no buyer contract state is needs a buyer\r\n        }\r\n\r\n        if( _seller == emptyAddress ){\r\n            return ContractState.needsASeller; // there is no seller contract state is needs a seller\r\n        }\r\n\r\n        if(!buyerHasRecievedItem){\r\n\r\n            return ContractState.buyerHasNotRecievedItem;\r\n        }\r\n        \r\n        return ContractState.finished;\r\n        \r\n    }\r\n\r\n\r\n    constructor(bool isBuyer, string memory _description) payable {\r\n        // what happens if not divisable, how does such statements define outcome\r\n        contractStart = block.timestamp;\r\n        description = _description;\r\n        if(isBuyer){\r\n            setBuyer();\r\n        } else {\r\n            setSeller();\r\n        }\r\n    }\r\n    \r\n    function setBuyer() payable public {\r\n        require(block.timestamp < contractStart + EscrowTypes.one_Week, \"contract is inactive\");\r\n\r\n        require(msg.value > 0, \"The price of the deposit must be greater than 0\");\r\n        \r\n        require(msg.value % 3 == 0, \"The price of the deposit must be divisible by 2 and 3\");\r\n        // if price is not set\r\n        if(_price == 0){\r\n            // set the price to value / 3\r\n            _price = msg.value / 3;\r\n        }\r\n\r\n        // Ensure buyer has not been set\r\n        // https://ethereum.stackexchange.com/questions/6756/ways-to-see-if-address-is-empty/6762\r\n        require(_buyer == address(0), \"buyer address has not been set\"); //makes ure the address is empty\r\n\r\n        _buyer = payable(tx.origin);// set buyer to be sender\r\n\r\n        require(msg.value == _price * 3, \"the deposited value must equal to x * 3\"); //make sure the value is price by 3\r\n\r\n        require(!buyerHasDeposited, \"Buyer has not yet deposited\"); //make sure the buyer has not deposited yet\r\n\r\n        buyerHasDeposited = true; //  if thats the case \r\n\r\n    }\r\n\r\n    function setSeller() payable public {\r\n        require(block.timestamp < contractStart + EscrowTypes.one_Week, \"contract is inactive\"); //best time suited to check for inactive?\r\n\r\n        require(msg.value > 0, \"The price of the deposit must be greater than 0\");\r\n        \r\n        require(msg.value % 2 == 0, \"The price of the deposit must be divisible by 2 and 3\");\r\n        // if price is not set\r\n\r\n        if(_price == 0){\r\n            // set the price to value / 2\r\n            _price = msg.value / 2;\r\n        }\r\n\r\n        // Ensure the seller has not been set\r\n        require(_seller == address(0), \"seller address has not been set\");\r\n\r\n        // if the seller has not been set and the state still needs addresses, set the seller to the tx.origin\r\n        _seller = payable(tx.origin);\r\n        \r\n        require(msg.value == _price * 2, \"the deposited value must equal to x * 2\");\r\n\r\n        require(!sellerHasDeposited, \"Seller has not yet deposited\");\r\n\r\n        sellerHasDeposited = true;// if all that is true set sellerHasDeposited to true\r\n\r\n    }\r\n\r\n    function buyerRecieveItem() public {\r\n        require(block.timestamp < contractStart + EscrowTypes.one_Week, \"contract is inactive\");\r\n        require(getCurrentState() == ContractState.buyerHasNotRecievedItem, \"Buyer should be waiting for item\");\r\n        require(tx.origin == _buyer, \"Only the Buyer can state when they have recieved product\");\r\n        _buyer.transfer(_price * 2);\r\n        _seller.transfer(_price * 3);\r\n        buyerHasRecievedItem = true;\r\n   }\r\n   \r\n   function contractExpired() public {\r\n        require(block.timestamp >= contractStart + EscrowTypes.one_month, \"contract is still active\");\r\n        require(address(this).balance > 0, \"contract needs to have value\");\r\n        if(_buyer != address(0)) {\r\n            _buyer.transfer(_price * 3);\r\n        }\r\n        if(_seller != address(0)){\r\n            _seller.transfer(_price * 2);\r\n        }\r\n   }\r\n\r\n}\r\n\r\n\r\ncontract Escrow {\r\n    address payable public _seller;\r\n    address payable public _buyer;\r\n   \r\n    uint public _price;\r\n    string public description;\r\n    uint public contractStart; // meant to test for inactivity\r\n\r\n\r\n    bool buyerHasDeposited = false;\r\n    bool sellerHasDeposited = false;\r\n    bool buyerHasRecievedItem = false;\r\n    \r\n\r\n    enum ContractState{ \r\n            startOfContract,\r\n            needsABuyer,\r\n            needsASeller,\r\n            buyerHasNotRecievedItem,\r\n            finished,\r\n            inactive,\r\n            inactiveAndSentValues\r\n    }\r\n    \r\n    event Deposit(ContractState update);\r\n   \r\n    /*********************\r\n    buyer deposits in p * 3\r\n    seller deposits in p * 2\r\n        - when buyerRecievesItem\r\n            - buyer gets back p * 2\r\n            - seller gets p * 2 (their deposit's back) + y (is extra from the buyer)\r\n    p*2 (for both users) = deposit \r\n    y = payment seller \r\n    ***************************/\r\n    \r\n    constructor(bool isBuyer, string memory _description) payable {\r\n        // what happens if not divisable, how does such statements define outcome\r\n        contractStart = block.timestamp;\r\n        description = _description;\r\n        if(isBuyer){\r\n            setBuyer();\r\n        } else {\r\n            setSeller();\r\n        }\r\n    }\r\n    \r\n    function getCurrentState() public view returns (ContractState){\r\n        /*\r\n        startOfContract,\r\n        needsABuyer,\r\n        needsASeller,\r\n        buyerHasNotRecievedItem,\r\n        finished\r\n        */\r\n        if(block.timestamp >= contractStart + EscrowTypes.one_month){\r\n            if(address(this).balance > 0){\r\n                return ContractState.inactive;\r\n            }\r\n            return ContractState.finished;\r\n        }\r\n        \r\n        address emptyAddress = address(0);\r\n    \r\n        if( _buyer == emptyAddress && _seller == emptyAddress){\r\n            // never be true because the constructor creates either a buyer or seller\r\n            return ContractState.startOfContract;\r\n        }\r\n\r\n        if( _buyer == emptyAddress ){\r\n            return ContractState.needsABuyer; // there is no buyer contract state is needs a buyer\r\n        }\r\n\r\n        if( _seller == emptyAddress ){\r\n            return ContractState.needsASeller; // there is no seller contract state is needs a seller\r\n        }\r\n\r\n        if(!buyerHasRecievedItem){\r\n\r\n            return ContractState.buyerHasNotRecievedItem;\r\n        }\r\n        \r\n        return ContractState.finished;\r\n        \r\n    }\r\n    \r\n    function getCurrentStateString() public view returns (string memory){\r\n        /*\r\n        startOfContract,\r\n        needsABuyer,\r\n        needsASeller,\r\n        buyerHasNotRecievedItem,\r\n        finished\r\n        */\r\n        \r\n        address emptyAddress = address(0);\r\n\r\n        if(block.timestamp >= contractStart + EscrowTypes.one_month){\r\n            if(address(this).balance > 0){\r\n                return \"ContractInactive\";\r\n            }\r\n            return \"finished\";\r\n        }\r\n\r\n\r\n        if( _buyer == emptyAddress && _seller == emptyAddress){\r\n            // never be true because the constructor creates either a buyer or seller\r\n            return \"startOfContract\";\r\n        }\r\n\r\n        if( _buyer == emptyAddress ){\r\n            return \"needsABuyer\";\r\n        }\r\n\r\n        if( _seller == emptyAddress ){\r\n            return \"needsASeller\";\r\n        }\r\n\r\n        if(!buyerHasRecievedItem){\r\n            return \"buyerHasNotRecievedItem\";\r\n        }\r\n        \r\n        return \"finished\";\r\n        \r\n    }\r\n\r\n    \r\n    function setBuyer() payable public {\r\n        require(block.timestamp < contractStart + EscrowTypes.one_Week, \"contract is inactive\");\r\n\r\n        require(msg.value > 0, \"The price of the deposit must be greater than 0\");\r\n        \r\n        require(msg.value % 3 == 0, \"The price of the deposit must be divisible by 2 and 3\");\r\n        // if price is not set\r\n        if(_price == 0){\r\n            // set the price to value / 3\r\n            _price = msg.value / 3;\r\n        }\r\n\r\n        // Ensure buyer has not been set\r\n        // https://ethereum.stackexchange.com/questions/6756/ways-to-see-if-address-is-empty/6762\r\n        require(_buyer == address(0), \"buyer address has not been set\"); //makes ure the address is empty\r\n\r\n        _buyer = payable(tx.origin);// set buyer to be sender\r\n\r\n        require(msg.value == _price * 3, \"the deposited value must equal to x * 3\"); //make sure the value is price by 3\r\n\r\n        require(!buyerHasDeposited, \"Buyer has not yet deposited\"); //make sure the buyer has not deposited yet\r\n\r\n        buyerHasDeposited = true; //  if thats the case \r\n\r\n    }\r\n\r\n    function setSeller() payable public {\r\n        require(block.timestamp < contractStart + EscrowTypes.one_Week, \"contract is inactive\"); //best time suited to check for inactive?\r\n\r\n        require(msg.value > 0, \"The price of the deposit must be greater than 0\");\r\n        \r\n        require(msg.value % 2 == 0, \"The price of the deposit must be divisible by 2 and 3\");\r\n        // if price is not set\r\n\r\n        if(_price == 0){\r\n            // set the price to value / 2\r\n            _price = msg.value / 2;\r\n        }\r\n\r\n        // Ensure the seller has not been set\r\n        require(_seller == address(0), \"seller address has not been set\");\r\n\r\n        // if the seller has not been set and the state still needs addresses, set the seller to the tx.origin\r\n        _seller = payable(tx.origin);\r\n        \r\n        require(msg.value == _price * 2, \"the deposited value must equal to x * 2\");\r\n\r\n        require(!sellerHasDeposited, \"Seller has not yet deposited\");\r\n\r\n        sellerHasDeposited = true;// if all that is true set sellerHasDeposited to true\r\n\r\n    }\r\n    \r\n    \r\n    function buyerRecieveItem() public {\r\n        require(block.timestamp < contractStart + EscrowTypes.one_Week, \"contract is inactive\");\r\n        require(getCurrentState() == ContractState.buyerHasNotRecievedItem, \"Buyer should be waiting for item\");\r\n        require(tx.origin == _buyer, \"Only the Buyer can state when they have recieved product\");\r\n        _buyer.transfer(_price * 2);\r\n        _seller.transfer(_price * 3);\r\n        buyerHasRecievedItem = true;\r\n        emit Deposit(getCurrentState());\r\n   }\r\n   \r\n   function contractExpired() public {\r\n        require(block.timestamp >= contractStart + EscrowTypes.one_month, \"contract is still active\");\r\n        require(address(this).balance > 0, \"contract needs to have value\");\r\n        if(_buyer != address(0)) {\r\n            _buyer.transfer(_price * 3);\r\n        }\r\n        if(_seller != address(0)){\r\n            _seller.transfer(_price * 2);\r\n        }\r\n   }\r\n}\r\n\r\n\r\n/*\r\n\r\n- form - user can create contract\r\n- list - user can view contracts owned by the user\r\n    - cannot view other peoples contracts without knowing that individuals address\r\n- form/view - interact with single contract\r\n    - the user can be the buyer/seller\r\n    - view the status\r\n\r\nhow does a buyer find sellers?\r\nhow do sellers find buyers?\r\n\r\nOn your server, have a database\r\n    - allow users to advertise their buys/sells using the database\r\n    - advertisement would send them to the form/view to interact with the single contract\r\n\r\n*/\r\ncontract EscrowContainer  {\r\n\r\n    uint public ticker;\r\n    // have list and length for buy and seller contracts\r\n    mapping (address => address[]) public buyerList;\r\n    mapping (address => uint) public buyerListLength;\r\n    mapping (address => address[]) public sellerList;\r\n    mapping (address => uint) public sellerListLength;\r\n\r\n    function getEscrowListLength(bool fromBuyer, address user) public view returns (uint) {\r\n        if(fromBuyer){\r\n            return buyerListLength[user];\r\n        } else {\r\n            return sellerListLength[user];\r\n        }\r\n    }\r\n\r\n    function getBuyerEscrowStruct(address user, uint item) public view returns (EscrowTypes.EscrowValues memory) {\r\n        // this function returns a struct \r\n        // This only will work if the item index is less than the length of the users addresses\r\n        // checking the buyers list\r\n        require(buyerListLength[user] > item, \"requested item should be less than length\");\r\n\r\n        // so we get the list associated to the buyer's address (set by the argument user) and get the item's index (also specified by the argument item)\r\n        address contractAddress = buyerList[user][item];\r\n        \r\n        // here we cast the address to be the an instance of the contract\r\n        Escrow e = Escrow(contractAddress);\r\n\r\n        // here we create our struct which we will be setting values to\r\n        EscrowTypes.EscrowValues memory val;\r\n        // we set the contract address\r\n        val.EscrowContract = contractAddress;\r\n        // we set the seller's address\r\n        val.seller = e._seller();\r\n        // we set the buyers address\r\n        val.buyer = e._buyer();\r\n        // we set the base price (the seller will recieve 3 * the price and the buyer will recieve 2 * the price);\r\n        val.price = e._price();\r\n        // we set the state so that the user has an idea of what has been done and what needs to be done \r\n        val.state = e.getCurrentStateString();\r\n\r\n        // we set the description\r\n        val.description = e.description();\r\n\r\n        // we return the struct0\r\n        return val;\r\n    }\r\n    function getSellerEscrowStruct(address user, uint item) public view returns (EscrowTypes.EscrowValues memory) {\r\n        // this is similar to the getBuyerEscrowStruct except it involves the sellers lists\r\n        require(sellerListLength[user] > item, \"requested item should be less than length\");\r\n        address contractAddress = sellerList[user][item];\r\n        Escrow e = Escrow(contractAddress);\r\n        EscrowTypes.EscrowValues memory val;\r\n        val.EscrowContract = contractAddress;\r\n        val.seller = e._seller();\r\n        val.buyer = e._buyer();\r\n        val.price = e._price();\r\n        val.state = e.getCurrentStateString();\r\n        val.description = e.description();\r\n        return val;\r\n    }\r\n\r\n    function createEscrow(bool isBuyer, string memory description) external payable {\r\n        ticker = msg.value;\r\n\r\n        // https://ethereum.stackexchange.com/questions/62031/create-a-child-contract-from-a-parent-contract-and-forward-the-sender-amount-to?rq=1\r\n        // pass value along to child contract\r\n        // Escrow newEscrow = new Escrow {value: msg.value }(isBuyer, description);\r\n        Example newEscrow = new Example {value: msg.value }(isBuyer, description);\r\n        // // we are creating a new escrow item\r\n\r\n        address newEscrowAddress = address(newEscrow);\r\n        // can cast a contract to an address\r\n        // https://ethereum.stackexchange.com/questions/66613/cast-contract-to-address-payable\r\n\r\n        if(isBuyer){\r\n            // if the isBuyer is true,\r\n            // we are appending the newEscroAddress to the sender's buyerlist\r\n            // this is done so that we have a list of all the contracts for that user\r\n            buyerList[tx.origin].push(newEscrowAddress);\r\n            buyerListLength[tx.origin]++;\r\n        } else {\r\n            // else we are appending the address to the senders sellerlist\r\n            sellerList[tx.origin].push(newEscrowAddress);\r\n            sellerListLength[tx.origin]++;\r\n        }\r\n\r\n    }\r\n\r\n    function setBuyer(address contractAddress) external payable {\r\n        ticker++;\r\n        // getting the escrow object associated to the address from the argument\r\n        Escrow escrow = Escrow(contractAddress);\r\n        // setting the buyer and sending the value\r\n        escrow.setBuyer{value: msg.value }();\r\n        // we append the user's buyer list with the new contract address\r\n        buyerList[tx.origin].push(contractAddress);\r\n        buyerListLength[tx.origin]++;\r\n    }\r\n\r\n    function setSeller(address contractAddress) external payable {\r\n        ticker++;\r\n        // getting the escrow object associated to the address from the argument\r\n        Escrow escrow = Escrow(contractAddress);\r\n        // setting the seller and sending the value\r\n        escrow.setSeller{value: msg.value }();\r\n        // we append the user's seller list with the new contract address\r\n        sellerList[tx.origin].push(contractAddress);\r\n        sellerListLength[tx.origin]++;\r\n    }\r\n    function buyerRecieveItem(address contractAddress) external {\r\n        ticker++;\r\n        // getting the escrow object associated to the address from the argument\r\n        Escrow escrow = Escrow(contractAddress);\r\n        // running the buyerRecieveItem function\r\n        escrow.buyerRecieveItem();\r\n    }\r\n\r\n    function contractExpired(address contractAddress) external {\r\n        // getting the escrow object associated to the address from the argument\r\n        Escrow escrow = Escrow(contractAddress);\r\n        // running the contractExpired function\r\n        escrow.contractExpired();\r\n    }\r\n\r\n    function cleanUpLists(address contractAddress) external {\r\n        ticker++;\r\n\r\n        // getting the escrow object associated to the address from the argument\r\n        Escrow escrowContract = Escrow(contractAddress);\r\n        \r\n        // only finished contracts should be able to be removed\r\n        require(\r\n            escrowContract.getCurrentState() == Escrow.ContractState.finished,\r\n            \"to remove the contract, the contract state should be finished\"\r\n        );\r\n\r\n        // try to remove the item from the buyer list\r\n        if(removeItemFromBuyerList(escrowContract)){\r\n            // returns true if removed from list\r\n            // subtract length by -1\r\n            buyerListLength[escrowContract._buyer()]--;\r\n\r\n            if(buyerListLength[escrowContract._buyer()] == 0){\r\n                // if there are no more items in the list\r\n                // delete the length and the list\r\n                delete buyerListLength[escrowContract._buyer()];\r\n                delete buyerList[escrowContract._buyer()];\r\n                // https://ethereum.stackexchange.com/questions/15277/how-to-delete-an-element-from-a-mapping/15282\r\n            }\r\n        }\r\n        // try to remove the item from the seller list\r\n        if(removeItemFromSellerList(escrowContract)){\r\n            // returns true if removed from list\r\n            // subtract length by -1\r\n            sellerListLength[escrowContract._seller()]--;\r\n            if(sellerListLength[escrowContract._seller()] == 0){\r\n                // if there are no more items in the list\r\n                // delete the length and the list\r\n                delete sellerListLength[escrowContract._seller()];\r\n                delete sellerList[escrowContract._seller()];\r\n            }\r\n        }\r\n\r\n    }\r\n\r\n    function removeItemFromBuyerList(Escrow escrow) internal returns (bool){\r\n        // With the escrow, we get the buyer's address\r\n        address buyer = escrow._buyer();\r\n        // with the buyer's address, we get the list associated with the buyer\r\n        address[] storage buyerListOfAddress = buyerList[buyer];\r\n\r\n        // and the length associated to that buyer's list\r\n        uint length = buyerListLength[buyer];\r\n\r\n        // With the escrow we also get the address we are looking to remove\r\n        address contractAddress = address(escrow);\r\n\r\n        /* to remove an item from the array, we need\r\n            - the array\r\n            - length of the array\r\n            - the address we are looking to remove\r\n        */\r\n\r\n        return removeAddressFromArray(\r\n            buyerListOfAddress,\r\n            length,\r\n            contractAddress\r\n        );\r\n    }\r\n    function removeItemFromSellerList(Escrow escrow) internal returns (bool){\r\n        // this function is similar to the one above featuring removing an item from the buyer's list\r\n        address seller = escrow._seller();\r\n        uint length = sellerListLength[seller];\r\n        address contractAddress = address(escrow);\r\n\r\n        // we want to remove an entry from the list sellerList\r\n        address[] storage sellerListOfAddress = sellerList[seller];\r\n        \r\n        return removeAddressFromArray(sellerListOfAddress, length, contractAddress);\r\n   }\r\n\r\n    \r\n    function removeAddressFromArray(address[] storage list, uint length, address contractAddress) internal returns (bool){\r\n        // how to remove an itemfrom the list\r\n\r\n        // if there are no items\r\n        if(length == 0){\r\n            // exit (return false because we didn't remove an item)\r\n            return false;\r\n        }\r\n        // if the length is one\r\n        if(length == 1){\r\n            // test to see if the item is equal to the search address\r\n            if(list[0] == contractAddress){\r\n                // if yes, remove the item\r\n                list.pop();\r\n                // and return true\r\n                return true;\r\n            }\r\n            // if the item is not equal, we aren't removing it\r\n            // return false\r\n            return false;\r\n        }\r\n\r\n        // inorder to remove an item from an array\r\n        // we set the current item equal to the item that is 1 above it\r\n        uint lastItem = length - 1;\r\n        bool found = false;\r\n        for(uint i; i < lastItem; i++){\r\n            if(found){\r\n                // already found the item\r\n                //  setting the current item equal to the one above it\r\n                list[i] = list[i + 1];\r\n            } else if(list[i] == contractAddress){\r\n                // if the current item is the address\r\n                // set true\r\n                found = true;\r\n                // set the current item to the one above it\r\n                list[i] = list[i + 1];\r\n            }\r\n        }\r\n        if(!found && list[lastItem] == contractAddress){\r\n            found = true;\r\n        }\r\n        if(found){\r\n            //removing the last one if it was found\r\n            list.pop();\r\n            return true;\r\n        }\r\n        return false;\r\n    }\r\n}",
  "sourcePath": "C:\\Users\\Dalts\\Desktop\\TradeTrust\\contracts\\escrow.sol",
  "compiler": {
    "name": "solc",
    "version": "0.8.7+commit.e28d00a7.Emscripten.clang"
  },
  "schemaVersion": "3.4.3",
  "updatedAt": "2021-08-13T03:31:41.927Z",
  "devdoc": {
    "kind": "dev",
    "methods": {},
    "version": 1
  },
  "userdoc": {
    "kind": "user",
    "methods": {},
    "version": 1
  }
}